:10000000EC26040000000000042600000826000082
:100010000C26000010260000142600001826000000
:100020001C260000002600002026000024260000D8
:10003000282600002C260000302600003426000070
:10004000382600003C260000402600004426000020
:10005000482600004C2600005026000054260000D0
:10006000582600005C260000602600006426000080
:10007000682600006C2600007026000000260000A4
:1000800000260000002600007426000078260000EC
:100090007C260000802600008426000088260000C0
:1000A0008C26000090260000942600009826000070
:1000B0009C260000A0260000A4260000A826000020
:1000C000AC260000002600000026000000260000EC
:1000D0000026000000260000002600000026000088
:1000E0000026000000260000002600000026000078
:1000F0000026000000260000002600000026000068
:10010000002600000026000000260000B0260000A7
:100110000026000000260000002600000026000047
:10012000002600000026000000260000B426000083
:10013000B82600000026000000260000002600006F
:10014000BC2600000026000000260000002600005B
:10015000002600000026000000260000C026000047
:1001600000260000002600000026000000260000F7
:1001700000260000002600000026000000260000E7
:1001800000260000002600000026000000260000D7
:1001900000260000002600000026000000260000C7
:1001A000C4260000C8260000CC260000002600005F
:1001B00000260000002600000026000000260000A7
:1001C0000026000000260000002600000026000097
:1001D0000026000000260000002600000026000087
:1001E0000026000000260000002600000026000077
:1001F0000026000000260000002600000026000067
:100200000026000000260000002600000026000056
:100210000026000000260000002600000026000046
:100220000026000000260000002600000026000036
:100230000026000000260000002600000026000026
:100240000026000000260000002600000026000016
:100250000026000000260000002600000026000006
:10026000D026000000260000002600000026000026
:1002700000260000002600000026000000260000E6
:1002800000260000002600000026000000260000D6
:1002900000260000002600000026000000260000C6
:1002A00000260000002600000026000000260000B6
:1002B00000260000002600000026000000260000A6
:1002C0000026000000260000002600000026000096
:1002D000002600000026000000260000D4260000B2
:1002E0000026000000260000002600000026000076
:1002F0000026000000260000002600000026000066
:10030000D8260000DC260000E0260000E4260000DD
:10031000E82600000026000000260000002600005D
:100320000026000000260000002600000026000035
:100330000026000000260000002600000026000025
:100340000026000000260000002600000026000015
:100350000026000000260000002600000026000005
:1003600000260000002600000026000000260000F5
:1003700000260000002600000026000000260000E5
:1003800000260000002600000026000000260000D5
:1003900000260000002600000026000000260000C5
:1003A00000260000002600000026000000260000B5
:1003B00000260000002600000026000000260000A5
:1003C0000026000000260000002600000026000095
:1003D0000026000000260000002600000026000085
:1003E0000026000000260000002600000026000075
:1003F0000026000000260000002600000026000065
:104800005EC80000853700000024000000000000A2
:10481000FE53000001000000EC2604000000000030
:104820000000000002000000000000000200000084
:104830000200000004000000000000000000000072
:10484000000000000000FA0001ECA90011608000E7
:1048500080FF2F00008060001060880030818000A1
:104860008000EB000001BE0080A82300810320002F
:1048700060020700000078000000E9002060880066
:10488000206080008000EB0061014000E081480072
:10489000208180008000EB00809AB900828BB900F3
:1048A00086027800050242000010B80001024200B2
:1048B0008400780042062000030020004D0207001B
:1048C0000000780030618800212CA900210CA9008B
:1048D00001618000F0F32F0000806000006188001B
:1048E00023ECA80023CCA90011618000F03F2F0029
:1048F000008060001061880001ECA8000080FA00D0
:10490000000006000200FA00000F780040062000B8
:104910009E007800808F500014003E009E007800BA
:1049200021818800206080008000EB006101400050
:10493000E0814800208180008000EB00809AB9006F
:10494000828BB90086027800050242000010B80090
:10495000010242008400780042062000030020008B
:104960002402070000007800306188000080FA000F
:10497000000006000200FA00000F7800501320002B
:104980009E007800808F5000210036008032220087
:104990009E007800808F50001D003E009E00780031
:1049A00031818800308180008000EB000001BE0072
:1049B00080A82300810320000E0207000000780079
:1049C0000000E90020608800206080008000EB008B
:1049D00061014000E0814800208180008000EB0000
:1049E000809AB900828BB9008602780005024200E5
:1049F0000010B80001024200840078004206200046
:104A000003002000FB0107000000780030618800EF
:104A10000080FA00000006000C00FA0048030700BE
:104A200088FF07000040EB00004F780001003700CE
:104A300000000000DE0207000004E000FCFF32007E
:104A4000C0020700104798009E40900020C6B300A7
:104A500080CF500001003A000000FE009E40900010
:104A6000F0C2B30080CF5000100034009E40900090
:104A700090C3B30080CF50000C003C001E80FB00B0
:104A80000080E8009E409000017778001E4FE8000B
:104A90001E407800E94F5000020036000040EB0055
:104AA000004F780000000000E2FF37009E409000B9
:104AB00040C4B30080CF50000A003A001E80FB00C3
:104AC0000080E8008040EB00017778000E80E8006D
:104AD000E20107008BFF07000040EB00004F780069
:104AE000D4FF37009E40900060C4B30080CF5000D8
:104AF0000A003A001E80FB000080E8008040EB00C6
:104B0000017778000E80E800D401070099FF0700C4
:104B10000040EB00004F7800C6FF37000040EB007C
:104B2000004F7800C3FF37000000FA00042EEF00AA
:104B3000182EEF000030200060718800707920008E
:104B400000708800F0FE2F00A0708800F01F200089
:104B5000407188000C2EEF00202EEF00342EEF0065
:104B60000A2EEF001E2EEF00322EEF00062EEF0071
:104B70001A2EEF002E2EEF00706920007070880052
:104B8000F038200010718800F00F2000B07188000C
:104B9000113A8000F00B20000081600060042000CA
:104BA0007105200023742000804978008149780035
:104BB0008249780080C3B300C4E6B700F1338000B7
:104BC000F00F2C00008060000080A000F03388000F
:104BD000103A8000000178000260A000600420000C
:104BE00071052000237420008049780081497800F5
:104BF000824978000080FA0000000600FFFF3700BD
:104C0000F42804000000000000260400000000005A
:104C10000026040000000000002604000000000040
:104C20000026040000000000002604000000000030
:104C30000026040000000000002604000000000020
:104C40000026040000000000002604000000000010
:104C50000026040000000000002604000000000000
:104C600000260400000000000026040000000000F0
:104C700000260400000000000026040000000000E0
:104C800000260400000000000026040000000000D0
:104C900000260400000000000026040000000000C0
:104CA00000260400000000000026040000000000B0
:104CB00000260400000000000026040000000000A0
:104CC0000026040000000000002604000000000090
:104CD0000026040000000000002604000000000080
:104CE0000026040000000000002604000000000070
:104CF0000026040000000000002604000000000060
:104D0000002604000000000000260400000000004F
:104D1000002604000000000000260400000000003F
:104D2000002604000000000000260400000000002F
:104D3000002604000000000000260400000000001F
:104D4000002604000000000000260400000000000F
:104D500000260400000000000026040000000000FF
:104D600000260400000000000026040000000000EF
:104D700000260400000000000026040000000000DF
:104D800000260400000000000026040000000000CF
:104D900000260400000000000026040000000000BF
:104DA00000260400000000000026040000000000AF
:104DB000002604000000000000260400000000009F
:104DC000002604000000000000260400000000008F
:104DD0000026040000000000AF0221000EFF2200A8
:104DE0000E01880000000000000020000000E0002C
:104DF0000200320000012000200288001400070099
:104E0000FB0007000000E00003003A0040BB220066
:104E100001002000020037000000200001002000F7
:104E2000810F7000010032000F0007000000200019
:104E30000000E0000200320000000200000000005C
:104E40000C250200000000000040DA000000FE0017
:104E5000200020000000E0000200320010002000CE
:104E60009001880000000600A102880080047800FC
:104E70000000EB001F003700E284440054A0B4009F
:104E80009905BA00E284440054A0B4009906BA001F
:104E9000E284440054A0B4000006EB00476FDE003B
:104EA000FD07B200AE018800636CE10003003A0028
:104EB0000AD801000000EB000E003700606CE10032
:104EC00008003A00004DEB000A05E8000200390036
:104ED0003420EC000AF0A0008B05E900F9FF3E0049
:104EE000040037006168E100010032000086EB0039
:104EF0000B00070019C7BA000E04E0001905BA003C
:104F000003003A000A00E000DBFF3A000000060060
:104F1000FE07B200AE0288008A047800F5FF370071
:104F20000CD0A300E20F4D001C003B00890278006A
:104F3000354DBA000A05E800020039003420EC00C3
:104F40000AF0A0008B05E9000F003200254DBA00E1
:104F50000A05E800020039003420EC000AF0A00045
:104F60008B05E900080032000C00E000060032006A
:104F700015CDBA000A05E800020039003420EC0023
:104F80000AF0A0008B05E9008984E80054A0B40071
:104F90000B00E000E2FF3A00000006009902BA00B0
:104FA000055D78008B05E900F7FF3200C82ADE00B6
:104FB000055D78008B05E900F3FF32000C00E0008E
:104FC000F1FF320019DDBA00EEFF37003600F800BD
:104FD000809FBE00829FBE00849FBE00869FBE0051
:104FE0000000FA00C028A9000000EB00EE01070055
:104FF0000080FA004F03BE004F02BE004F01BE000A
:105000004F00BE003600F900004006003600F800F0
:10501000809FBE00829FBE00849FBE00869FBE0010
:105020000000FA00E7010700C048A90010002000B6
:10503000DD0107000080FA004F03BE004F02BE00F2
:105040004F01BE004F00BE003600F90000400600D0
:105050003600F800809FBE00829FBE00849FBE0085
:10506000869FBE000000FA00C068A9002000200052
:10507000CD0107000080FA004F03BE004F02BE00C2
:105080004F01BE004F00BE003600F9000040060090
:105090003600F800809FBE00829FBE00849FBE0045
:1050A000869FBE000000FA00C088A90030002000E2
:1050B000BD0107000080FA004F03BE004F02BE0092
:1050C0004F01BE004F00BE003600F9000040060050
:1050D0003600F800809FBE00829FBE00849FBE0005
:1050E000869FBE000000FA00C0A8A9004000200072
:1050F000AD0107000080FA004F03BE004F02BE0062
:105100004F01BE004F00BE003600F900004006000F
:105110003600F800809FBE00829FBE00849FBE00C4
:10512000869FBE000000FA00C608A900700020009B
:105130009D0107000080FA004F03BE004F02BE0031
:105140004F01BE004F00BE003600F90000400600CF
:105150003600F800809FBE00829FBE00849FBE0084
:10516000869FBE000000FA0021468000001020004B
:10517000008060000000E00003003200C508A900C4
:10518000C0002000880107002146800000002800A0
:10519000008060000000E00003003200C5E8A900C4
:1051A00080002000800107002146800000022000CE
:1051B000008060000000E00003003200C4A8A900E5
:1051C00090002000780107002046800070006000F9
:1051D0000000E00003003200C488A900A000200005
:1051E00071010700FFFF37000040DA000000FE00F9
:1051F000000005006022B800060220000000D00078
:105200008180D2000482D2008582D2000000A000FA
:105210000202520083825A0003003100020242005F
:1052200083824A000000A1000603E900F3FF3A0070
:10523000000006008000780010002000020220001C
:10524000828F500004003200E9805000E48F50004B
:10525000010036000000EB0000000600889FBE0041
:105260008A1F7800000578000A04780098447800C6
:105270000805E8000900FB00EEFF07000000E00061
:10528000F9FF3A00B0C2B30080CF540005003200ED
:10529000D0C2B3008000EB0080CF540005003A007C
:1052A000020037008000EB000100370011002000F1
:1052B0000804E8000000EB0003003700EA00B90032
:1052C000020050000003B0003801FB0003FD2F0076
:1052D00082814100E98F5100F8FF36000100E000B3
:1052E00001003A000000EA004F0578004F04BE00BC
:1052F000000006000000FA00003A80000080FA007A
:10530000000006000200FA00FAFF0700000F780014
:105310001E007800240007000004E00002003200B4
:1053200000002800710007001E0078002A00070016
:105330000004E00002003200000024006B000700BF
:105340001E007800320007000004E0000200320076
:1053500000202000650007001E0078003A000700CA
:105360000004E00002003200000820005F00070097
:105370001E007800420007000004E0000200320036
:1053800000042000590007001E0078004A000700B2
:105390000004E0000200320000012000530007007A
:1053A0000080FA00000006000400FA0010079800D0
:1053B0000040EB00004F78001E0090000000E0006D
:1053C00002003D0010C0B300004F78001E4078007E
:1053D0000080FA00000006000400FA0010079800A0
:1053E0000040EB00004F78009E0090000000240079
:1053F000008060000000E0000200320010C0B30036
:10540000004F78001E4078000080FA00000006007F
:105410000400FA00100798000040EB00004F7800ED
:105420009E00900000202000008060000000E0004E
:105430000200320010C0B300004F78001E40780018
:105440000080FA00000006000400FA00100798002F
:105450000040EB00004F78009E0090000008200004
:10546000008060000000E0000200320010C0B300C5
:10547000004F78001E4078000080FA00000006000F
:105480000400FA00100798000040EB00004F78007D
:105490009E00900000042000008060000000E000FA
:1054A0000200320010C0B300004F78001E407800A8
:1054B0000080FA00000006000400FA0010079800BF
:1054C0000040EB00004F78001E009000700060006C
:1054D0000000E0000200320010C0B300004F78006E
:1054E0001E4078000080FA00000006000200FA006A
:1054F000000F78009E80EA00003A80000080600083
:10550000003A88000080FA00000006000000FA005F
:105510004027EF000080FA00000006000000FA00BB
:1055200080002000001188002222EF00F0022000FD
:105530004011880021E2A8002342A8000080FA0060
:10554000000006000000FA000000000010118000BA
:10555000610060000000E000FCFF320010118000DC
:10556000620060000000E000010032002222A90079
:1055700030118000004078000080FA000000060032
:105580000200FA00004F78000000000011118000B6
:1055900000202000008060000000E000FBFF3A00D7
:1055A0001E80FB00201188000080FA000000060029
:1055B0000000FA0010118000004078006140600097
:1055C0000080FB0000F0A7000000EA000000EA00F5
:1055D0004F00DE00004078000080FA000000060066
:1055E0000000FA00111180000020200000806000FF
:1055F0000000E00007003A00111180000040200088
:10560000008060000000E000020032001000200076
:10561000010037000000EB00004078000080FA0035
:10562000000006000000FA00101180004800DE00B3
:10563000614060000080FB0000F0A7000000EA006D
:105640000000EA004F00DE00004078000080FA0011
:10565000000006000000FA00101180000080FA002F
:10566000000006000000FA0021E2A8002342A80082
:105670000080FA00000006000000FA0021E2A90004
:105680002342A9000080FA00000006000000FA0092
:1056900000102300203A88004827EF004E27EF0033
:1056A00020032000303A88006027EF006227EF00D7
:1056B0006427EF006627EF006A27EF006C27EF00F2
:1056C0006E27EF007200200080072000A109200053
:1056D000337420008049780081497800824978003D
:1056E0000001EB00600420007105200023742000FD
:1056F0008049780081497800824978000080FA006A
:10570000000006000200FA00000F7800210280006D
:10571000200F2000008060001E0070002002880022
:105720000080FA00000006000000FA00C3E8A800AC
:1057300000000000000000000080FA0000000600E9
:105740000000FA00F8FC0700D0FF07002C0007005B
:1057500072FF0700F4FF070000022000E9FF0700C6
:105760000080FA0000000600201000000400000085
:1057700080000000281000000200000082000000ED
:10578000FFFF00000010000020000000800000006B
:1057900024100000040000008200000032003600E7
:1057A00001000000000000000200FA00000F780075
:1057B0009E007800418188000000FE000080FA0011
:1057C000000006000000FA000000210080077800B9
:1057D00080012100000188000080FA00000006001E
:1057E000809FBE00EC805700310078000081880067
:1057F0001100780022F0B7004F00BE000000060044
:0C5800000000FA000080FA000000060022
:020000040002F8
:04AF0000FFFFFF0050
:04AF2000FFFF00002F
:04AF30007FFF00009F
:04AF38009FFF000077
:04AF40009FFF00006F
:04AF4800FFFF000007
:04AF5000FEFF000000
:04AF580000000000F5
:04AF600000000000ED
:04AF680000000000E5
:04AF700000000000DD
:04AF7800FEFF0000D8
:04AF8000FFFF0000CF
:04AF8800FFFF0000C7
:00000001FF
