:020000040000fa
:080000000002040000000000f2
:020000040000fa
:1000080004220000082200000c2200001022000038
:1000180014220000182200001c2200000022000008
:100028002022000024220000282200002c220000a8
:100038003022000034220000382200003c22000058
:100048004022000044220000482200004c22000008
:100058005022000054220000582200005c220000b8
:100068006022000064220000682200006c22000068
:100078007022000000220000002200000022000080
:1000880074220000782200007c22000080220000f8
:1000980084220000882200008c22000090220000a8
:1000a80094220000982200009c220000a022000058
:1000b800a4220000a8220000ac22000000220000b8
:1000c80000220000002200000022000000220000a0
:1000d8000022000000220000002200000022000090
:1000e8000022000000220000002200000022000080
:1000f8000022000000220000002200000022000070
:1001080000220000b02200000022000000220000af
:10011800002200000022000000220000002200004f
:1001280000220000b4220000b822000000220000d3
:100138000022000000220000bc2200000022000073
:10014800002200000022000000220000002200001f
:1001580000220000c022000000220000002200004f
:1001680000220000002200000022000000220000ff
:1001780000220000002200000022000000220000ef
:1001880000220000002200000022000000220000df
:100198000022000000220000c4220000c822000043
:1001a800cc220000002200000022000000220000f3
:1001b80000220000002200000022000000220000af
:1001c800002200000022000000220000002200009f
:1001d800002200000022000000220000002200008f
:1001e800002200000022000000220000002200007f
:1001f800002200000022000000220000002200006f
:10020800002200000022000000220000002200005e
:10021800002200000022000000220000002200004e
:10022800002200000022000000220000002200003e
:10023800002200000022000000220000002200002e
:10024800002200000022000000220000002200001e
:100258000022000000220000d0220000002200003e
:1002680000220000002200000022000000220000fe
:1002780000220000002200000022000000220000ee
:1002880000220000002200000022000000220000de
:1002980000220000002200000022000000220000ce
:1002a80000220000002200000022000000220000be
:1002b80000220000002200000022000000220000ae
:1002c800002200000022000000220000002200009e
:1002d80000220000d42200000022000000220000ba
:1002e800002200000022000000220000002200007e
:1002f8000022000000220000d8220000dc220000ba
:10030800e0220000e4220000e822000000220000b1
:10031800002200000022000000220000002200004d
:10032800002200000022000000220000002200003d
:10033800002200000022000000220000002200002d
:10034800002200000022000000220000002200001d
:10035800002200000022000000220000002200000d
:1003680000220000002200000022000000220000fd
:1003780000220000002200000022000000220000ed
:1003880000220000002200000022000000220000dd
:1003980000220000002200000022000000220000cd
:1003a80000220000002200000022000000220000bd
:1003b80000220000002200000022000000220000ad
:1003c800002200000022000000220000002200009d
:1003d800002200000022000000220000002200008d
:1003e800002200000022000000220000002200007d
:0803f8000022000000220000b9
:020000040000fa
:100400002f2321000eff22000e01880000000000b3
:10041000000020000000e000020032000001200087
:100420002002880014000700fb0007000000e00025
:1004300003003a00204221000100200002003700a2
:100440000000200001002000810f70000100320038
:100450000f000700000020000000e0000200320052
:100460000000020000000000bc14020000000000b8
:100470000040da000000fe00400220000000e00022
:1004800002003200002020009001880000000600d9
:10049000a1028800800478000000eb001f003700f4
:1004a000e284440054a0b4009905ba00e2844400f8
:1004b00054a0b4009906ba00e284440054a0b400e9
:1004c0000006eb00476fde00fd07b200ae018800ba
:1004d000636ce10003003a000ad801000000eb0061
:1004e0000e003700606ce10008003a00004deb00a0
:1004f0000a05e800020039003420ec000af0a000f0
:100500008b05e900f9ff3e00040037006168e10057
:10051000010032000086eb000b00070019c7ba008b
:100520000e04e0001905ba0003003a000a00e000da
:10053000dbff3a0000000600fe07b200ae028800b2
:100540008a047800f5ff37000cd0a300e20f4d00bd
:100550001c003b0089027800354dba000a05e8000e
:10056000020039003420ec000af0a0008b05e900fd
:100570000f003200254dba000a05e80002003900dc
:100580003420ec000af0a0008b05e90008003200de
:100590000c00e0000600320015cdba000a05e800a4
:1005a000020039003420ec000af0a0008b05e900bd
:1005b0008984e80054a0b4000b00e000e2ff3a0098
:1005c000000006009902ba00055d78008b05e9007d
:1005d000f7ff3200c82ade00055d78008b05e900d0
:1005e000f3ff32000c00e000f1ff320019ddba0029
:1005f000eeff37003600f800809fbe00829fbe00ed
:10060000849fbe00869fbe000000fa00c028a9009b
:100610000000eb00c20807000080fa004f03be0094
:100620004f02be004f01be004f00be003600f90071
:10063000004006003600f800809fbe00829fbe008a
:10064000849fbe00869fbe000000fa00bb08070022
:10065000c048a90010002000b10807000080fa007f
:100660004f03be004f02be004f01be004f00be0050
:100670003600f900004006003600f800809fbe00fa
:10068000829fbe00849fbe00869fbe000000fa00cd
:10069000c068a90020002000a10807000080fa001f
:1006a0004f03be004f02be004f01be004f00be0010
:1006b0003600f900004006003600f800809fbe00ba
:1006c000829fbe00849fbe00869fbe000000fa008d
:1006d000c088a90030002000910807000080fa00bf
:1006e0004f03be004f02be004f01be004f00be00d0
:1006f0003600f900004006003600f800809fbe007a
:10070000829fbe00849fbe00869fbe000000fa004c
:10071000c0a8a90040002000810807000080fa005e
:100720004f03be004f02be004f01be004f00be008f
:100730003600f900004006003600f800809fbe0039
:10074000829fbe00849fbe00869fbe000000fa000c
:10075000c608a90070002000710807000080fa0098
:100760004f03be004f02be004f01be004f00be004f
:100770003600f900004006003600f800809fbe00f9
:10078000829fbe00849fbe00869fbe000000fa00cc
:100790002146800000102000008060000000e00082
:1007a00003003200c508a900c00020005c08070053
:1007b0002146800000002800008060000000e0006a
:1007c00003003200c5e8a90080002000540807009b
:1007d0002146800000022000008060000000e00050
:1007e00003003200c4a8a900900020004c080700b4
:1007f00020468000700060000000e000030032002e
:10080000c488a900a000200045080700ffff3700aa
:100810000040da000000fe000000050080017800c2
:1008200002003700b15978000201e9000200e0003f
:10083000fcff3a0000000600800178008102780089
:10084000810f50004100320002824000840f5000ae
:100850000300310002024000848f50000100390083
:10086000eeff370000826800810f50001b0031004e
:100870000408a30005003200150037000200e00064
:10088000320032000201e900b15978000308a300e8
:10089000faff3a0003037800820278000102780030
:1008a00002003700b41978000281e900e10f51001d
:1008b000fcff3e00618162000500a100850143004c
:1008c0008582400002003700b55978000201e90036
:1008d0000200e000fcff3a00000006000408a3004c
:1008e00018003a00060037000200e000170032004e
:1008f0000201e90082014000028240009449780030
:10090000820140000308a300f7ff3a00820178004b
:10091000040037000281e9000202400082824000a8
:10092000150a7800e10f5100faff3e006181610075
:10093000040037000201e900820140000282400009
:10094000944978000200e000faff3a000000060037
:10095000889fbe008a9fbe00800478000200e000ed
:100960005b00320001407800814c780082814400b5
:10097000f1f99f00e20f51005500360091449800b4
:10098000a1449800e1f99f00d1f99f00e60f5100c2
:100990004f003600b1449800c1f99f00e80f5100a4
:1009a0004b0036000905ea00630565000a8444002f
:1009b0000a055100c1ff2f00010565000080fb0002
:1009c0008000eb00121020001310200044000700ec
:1009d000008cbe000a01440060b99f0071b99f00fd
:1009e000e80f55003a0036002004980031049800c2
:1009f000400498005104980020b99f0031b99f002d
:100a000040b99f0051b99f00f80f550030003600e3
:100a10006004980071049800000c9800110c980074
:100a2000200c9800310c9800400c9800510c980054
:100a300020b19f0031b19f0040b19f0051b19f0094
:100a400060b19f0071b19f0000b99f0011b99f0074
:100a5000640164007801410002044400020555006d
:100a60006011b8000203be000002be000403be0015
:100a70006022b800000072008180720002017300e1
:100a80008381730010003700009cbe000294be00fa
:100a90004004980051049800620498007304980080
:100aa000000c9800110c9800220c9800330c980050
:100ab000400c9800510c9800620c9800730c980040
:100ac0000a02b1000802b000ff0f5500eeff3e0021
:100ad000090078004f05be004f04be00000006006c
:100ae000020ab900001bb9000200b80081004200f0
:080af000810043000000060034
:020000040000fa
:100af8000b080000000000000000000000000000db
:100b080000000000000100000020000000000000bc
:100b1800fe53000001000000090000000000000072
:100b280000000000000000000000000000010000bc
:080b3800002000000000000095
:020000040000fa
:100b40000000fa000080fa00000006000600fa002b
:100b5000881f780003060700000f78001e00780049
:100b60000000e00002003a001000200041003700c1
:100b70001e007800ea0f500002003e002000200016
:100b80003c0037000000eb00b60507002047980046
:100b900010002000b30507000084fb0020002000a7
:100ba000b00507000080fb004800dd0000004400a5
:100bb0006b00400020079800ae009000001020005d
:100bc000808f5000060036002e409000e34f50000a
:100bd00003003200d00f200030000700250037004e
:100be0002e4090000080fb00e30f50001600320002
:100bf000e30f500007003c00e10f50000e003200f0
:100c0000e10f50000a003c000000e0000c00320040
:100c100016003700ea0f500010003200eb0f5000b2
:100c200010003200e90f5000090032000f003700b9
:100c3000fd0007000f003700810107000d0037009d
:100c4000280007000b003700890007000900370063
:100c50006f0007000000eb0006003700d701070017
:100c600004003700f601070002003700f00f2000f3
:100c70000a0007004f0478000080fa000000060018
:100c80000200fa0080002200000f78001e007800a9
:100c9000000001000080fa00000006000e00fa00cb
:100ca00060079800b100200040102100790507007e
:100cb000b2002000411021000e007800d7fe07008e
:100cc0006e00900000407800304f9800c100200076
:100cd0000e0078008b050700300020000080fa002d
:100ce000000006002600fa0011000900001feb00ba
:100cf000005feb005e02b100de009000f00f20000c
:100d0000008060000090a00050079800ee00900066
:100d100000f02f00008060000000a0006007980035
:100d2000ee009000f00f2000008060006007980047
:100d3000fe00900000f02f00008060000000a00086
:100d4000700798008e089000f00f200080806000ef
:100d50000060250001007000000f98009e089000c0
:100d600000f02f0080806000400320000100700030
:100d7000100f9800be089000f00f20000080600067
:100d800000b0a000300f9800ce08900000f02f00b7
:100d900000806000400f980022030700f10f200040
:100da00081006000c808dd00ae099000f20f20004d
:100db0000281610082807000210f9800c800de006f
:100dc000f00f2000008060003e09900001f02f002d
:100dd0008100610001007000300f9800b100200018
:100de000401021002b050700510220000e00780062
:100df000440507000000eb000080fa000000060038
:100e00000000fa000000fe000080fa00000006006a
:100e10000c00fa00005928008e007800b018780005
:100e2000a0107800e480400064004000b018780012
:100e3000a0107800e480400064004000b018780002
:100e4000a0107800e480400064004000b100200061
:100e5000401021000f050700c10020000e0078009f
:100e600028050700e6ff07000080fa0000000600e2
:100e70000e00fa00881f780040102100000f780053
:100e8000b100200040102100020507000e80e8009c
:100e9000b20020004110210060fe0700e0cfb30047
:100ea000504f98001e007800b04090008180fb00f9
:100eb000404290000482fb004822dd0084807000e4
:100ec00001017800d04090008180fb0060409000dc
:100ed0000080fb004800dd00008070008001780089
:100ee0001e007800904090008180fb002040900020
:100ef0000080fb004800dd00008070006103b80046
:100f00001e027800f44290008582fb00044c9000a1
:100f10000884fb004844dd008882720005007800e8
:100f2000944a90008582fb00244a90000482fb00d2
:100f30004822dd0004827200840078000202be00b4
:100f40000601be002a0207000000e00002003a008d
:100f500010c0b300504f98000e80e800c100200080
:100f6000e80407001e017800b24190008381fb0075
:100f7000424290000482fb004822dd00848171001f
:100f800003007800d24190008381fb006241900011
:100f90000281fb004811dd000281710082007800af
:100fa0000081ea008181ea001e007800f10f200034
:100fb0008100610030429000604262008140720016
:100fc00031409800c810de0040429000604262004c
:100fd0008140720041409800f10f20008180610043
:100fe000504290006042620081407200514098007f
:100ff000c818de00604190006041610081407100ce
:10100000614098005e489000e14f500002003a00b5
:101010000000eb0001003700300020004f04780092
:101020000080fa00000006001000fa00889fbe0051
:1010300040102100000f78002000200089040700e4
:101040000080fb004800dd00100798001000200021
:10105000840407000080fb009e00900001007000e7
:1010600010079800bf0407009e009000eb8040002e
:10107000810f500002003100200020006d00370079
:101080001e0090006b00400080007800401021009e
:101090008004070064004700b200200041102100d6
:1010a000defd070010c0b300704f98009e00900056
:1010b000500f2000808f50002b003e001e00780053
:1010c000b04090008180fb00404290000482fb0011
:1010d0004822dd008480700001017800d04090003b
:1010e0008180fb00604090000080fb004800dd0034
:1010f00000807000800178009e007800eb82400044
:101100001e0090006104b8001e0278007443900035
:101110000683fb00844b90008783fb00c83bdd0007
:101120000703730006007800144b90000683fb0051
:10113000244a90000482fb004822dd000402730070
:10114000840078000203be00050278000801be009a
:10115000f50007000000e00005003200e0cfb3001a
:10116000704f980002003700e0cfb300704f980036
:1011700064004700c1002000620407001e017800df
:10118000b24190008381fb00424290000482fb0048
:101190004822dd008481710003007800d241900074
:1011a0008381fb00624190000281fb004811dd0059
:1011b00002817100820078000081ea008181ea00ea
:1011c0001e007800f10f2000810061003042900085
:1011d000604262008140720031409800c810de0019
:1011e000404290006042620081407200414098009d
:1011f000f10f200081806100504290006042620047
:101200008140720051409800c818de006041900093
:101210006041610081407100614098007e4890000b
:10122000e14f500002003a000000eb0001003700df
:10123000300020004f04be000080fa0000000600cd
:101240000401fa0040102100000f7800b1002000d6
:10125000401021000f04070064004700b200200086
:10126000411021006dfd07001e00780090409000a5
:101270008180fb00204090000080fb004800dd00e2
:101280000080700080007800400f2000808f5000a8
:101290002e003e001e017800f24190008381fb0089
:1012a000024a90000482fb004822dd008481710024
:1012b00003007800924990008381fb00224990004e
:1012c0000281fb004811dd0002817100820078007c
:1012d0001e017800924190008381fb002241900022
:1012e0000281fb004811dd00028171008001eb00ea
:1012f000640247006c0342000002be000600780052
:10130000ec000700100798001e0090000000e000ad
:1013100003003a0010c0b300704f9800150037006a
:10132000e0cfb300704f9800ae009000f00f2000a7
:101330000080600020079800be00900000f02f00a1
:1013400000806000300798000a003700e0cfb3004b
:10135000704f9800ae009000f00f200000806000f9
:1013600020079800be00900000f02f000080600071
:10137000300798002e0090004800de003e019000eb
:10138000f10f200081006100c808dd00010070003d
:10139000ec00400064004700da0307007e4890003c
:1013a000e14f500002003a000000eb00010037005e
:1013b000300020000080fa00000006000e00fa0055
:1013c000b10020000e007800b20307000000eb001f
:1013d000da0407000004a2000004e0000300320069
:1013e000c0cfb300304f98000200370010c0b300e8
:1013f000304f98009e007800f00f200000806000c1
:10140000000f78009e00900000f02f000080600028
:1014100010079800c10020000e007800b9030700f3
:101420003e489000e14f500002003a000000eb00ff
:1014300001003700300020000080fa0000000600a4
:101440001400fa00c157280009000900311f780074
:101450004e01b100b1002000401021008d030700b3
:10146000410120000e007800a60307000000eb00f9
:101470000080fa00000006000400fa00008fbe00a1
:10148000f0ff2100010020001e0178009e01900065
:10149000800f5100818f590009003600e03f250080
:1014a000110020001e0178009e019000800f510065
:1014b000818f590002003e0010002000010037001b
:1014c0000000eb00004078000080fa0000000600f9
:1014d0000800fa00008fbe0022079800330798002a
:1014e0001e0078009e009000e3ff07000004e0006b
:1014f000090032002e009000be00900062005000f3
:10150000e0805800dcff07000004e0000200320029
:1015100010002000010037000000eb0000407800c0
:101520000080fa00000006002000fa00889fbe003c
:10153000100f9800210f9800320f9800430f980069
:10154000540f9800660f9800770f98006000b8005d
:10155000008fbe000000eb00200798003e089000be
:10156000ce08900000007800670060008004eb0067
:10157000000478000800be00e00f5000e08f580023
:1015800046003a003e089000ce0890008101d1004c
:101590000081d3001e089000ae08900002004000b9
:1015a000838048000001be001e089000ae08900035
:1015b000c7ff07000004e000350032006e0890000d
:1015c000fe089000f60107006000b800008fbe0022
:1015d000260037001e0078009e0090008101d10097
:1015e0000081d3001e089000ae0890000200400069
:1015f000838048000001be000000eb00f4000700fb
:1016000030079800410798001e007800de0890001f
:10161000808040006a004700820020007ffc0700b5
:101620007e0190008e0990005e009000ee00900018
:101630000202be000001be003e009000ce009000fd
:10164000140207000004a2000004e00003003200be
:1016500030002000200798000b0037008200200097
:10166000030020001e0f41005e9749003e089000d5
:10167000ce0890001e0178009e019000800f51005e
:10168000818f5900d3ff3900ca01070005003700d8
:1016900020002000200798000200370010002000e2
:1016a000200798002e0090004f04be000080fa0032
:1016b000000006001800fa0070079800020f98005a
:1016c000130f9800240f9800350f98000000eb00ce
:1016d000200798000e0890009e08900000007800f7
:1016e000630060008003eb00000378000600be008a
:1016f000e00f5000e08f580038003a000e089000cc
:101700009e0890008101d1000081d3002e08900036
:10171000be08900002004000838048000001be0027
:101720002e089000be08900069ff07000004e0004a
:10173000270032006000b800008fbe001c00370098
:101740001e0078009e0090008101d1000081d3002e
:101750002e089000be0890000200400083804800e0
:101760000001be000000eb00990007003007980060
:10177000410798003e009000ce009000aa010700ab
:1017800050079800610798001e007800fe00900046
:1017900000804000ea004700420020001ffc0700d4
:1017a00042002000030020001e0f41005e97490008
:1017b0000e0890009e0890001e0178009e01900087
:1017c000800f5100818f5900ddff3900050037007f
:1017d00020002000200798000200370010002000a1
:1017e000200798002e0090000080fa0000000600fc
:1017f0001800fa006007980071079800020f98001f
:10180000130f9800240f9800350f98000000eb008c
:10181000000f78006e019000fe0190001207980002
:101820002307980010c0b300604798001e01900085
:10183000ae01900000c02f00f1ff2f0002027800df
:1018400003017800800178008100780003006200c5
:101850008100610081037800000378000601be006a
:101860001e009000ae009000800f5100818f590043
:10187000020032000040eb00604798002e08900004
:10188000be08900046010700260037001e019000a8
:10189000ae01900000402000010020000200400046
:1018a000838048000001be001e009000ae00900042
:1018b00007ff07000004e000180032001e0190003e
:1018c000ae0190000000eb004100070040079800c7
:1018d000510798004e009000de0090005f01070065
:1018e0000080fb0000f0a7000000ea000000ea0012
:1018f0004f00de00604798001e019000ae0190008e
:1019000000402000010020000200400083804800c9
:101910001007980021079800020037000040eb00f4
:10192000604798006e4090000004e0000f00320015
:101930000e0890009e0890004a09dd00c601de00f6
:10194000830171004a01dd006e009000fe009000ee
:1019500002014000838148001e009000ae0090000c
:10196000800f5100818f5900c8ff3e001101070010
:101970006e4090000004a2000004e0000f003a0056
:101980000e0890009e0890004a09dd00c601de00a6
:10199000830171004a01dd006e009000fe0090009e
:1019a00002014000838148001e009000ae009000bc
:1019b000800f5100818f590002003200200020006a
:1019c000000f78001e0078000080fa00000006007a
:1019d0000a00fa0020079800320798004307980091
:1019e000e02c8400f12c84003e019000ce01900098
:1019f000001f5100019759002e009000c200dd0029
:101a0000c05928000080400090009000100078002d
:101a10003e014000ae8148000200be000080fa0096
:101a2000000006000000fa00004020000080fa00dc
:101a3000000006000600fa00889fbe00000f780034
:101a400012079800230798001e009000ae00900037
:101a5000fc0007008000eb001e0178000089be003a
:101a60001e00780010047800900490001e00900082
:101a7000ae00900062004000e0804800f1000700e6
:101a80008000eb00c000dd000000200008004000e6
:101a9000898048001e0178000089be000000eb002c
:101aa0004f04be000080fa00000006000600fa00a5
:101ab000000f780012079800230798001e0090007e
:101ac000ae009000df0007009e00780080087800dc
:101ad0000000eb000080fa00000006000600fa009b
:101ae000000f780012079800230798001e00780066
:101af0001e019000ae019000ecff07001e00900058
:101b0000ae00900062004000e08048001e82e800c5
:101b10000001be0004007800c6ff07001e00900010
:101b2000ae00900066004000e08048001e01780092
:101b300030019800410198000080fa000000060082
:101b40000400fa00008fbe001e0078009e00900086
:101b500000007800610060008001eb000001780067
:101b60000200be000080700000f0a7000000ea0044
:101b70000000e9004f00de00004078000080fa001d
:101b8000000006000e00fa00400798005107980078
:101b9000620798004e009000a00090001000900096
:101ba000000f78004e00900030019000c0019000be
:101bb00012079800230798001e0078008000eb00b1
:101bc000dfff0700604798006e4090000004e000cf
:101bd000180032006e0090009e007800808f500048
:101be00011003600ee019000030f78000e00370060
:101bf0001e019000ae0190005e009000abff070058
:101c00005e0090000080e800500798001e009000e1
:101c1000ae00900062004000e0804800100798008d
:101c2000210798001e8fe9001e0078000000e000e8
:101c3000efff3a006e4090000080fa0000000600be
:101c40001c00fa00200f9800310f9800420f9800f6
:101c5000530f9800c2002200030020002e089000bd
:101c60005bff0700008fbe000040eb00404798007c
:101c7000680047001e0178009e01900097ff070052
:101c80004e0090000000e00032003a005e0190003b
:101c9000ee0190002000200001002000800f510084
:101ca000818f59002b003a00f2004700680047007e
:101cb00022002000b3ff07000004e00025003200ee
:101cc00010002000300798001c0037005e009000d4
:101cd000ee0090003e014000ae8148000200be00d0
:101ce0006200200003002000021f4000039748000c
:101cf000680047001e0178009e01900077ff0700f2
:101d0000ce0090003e089000808f500005003a0001
:101d1000680047005e099000ce08900099ff070018
:101d2000404798004e4090000004e00008003a0050
:101d30003e0090000000e800300798001e08900068
:101d4000be009000808f5000e0ff39000100370096
:101d5000000000004e4090000080fa0000000600e5
:101d60000400fa00000f78001107980042002000dc
:101d70008000eb001e009000f5fa07001e009000a6
:101d80004300200000017800210020001e007800a0
:0c1d9000abff07000080fa000000060016
:020000040000fa
:101d9c000000fe00e2222100001978000109780001
:101dac00000006000000fe000000eb008000eb00cd
:101dbc00f8ff07002e27ef00000006000000fe00d1
:101dcc000000fe00801f7800811f7800821f7800c1
:101ddc00e122210012468000c3e8a90031007800fe
:101dec0070398800110078007039880029e7a80044
:101dfc00000000000000000029e7af00feff3700e4
:101e0c0002f0a700c3e8a8004f017800cf007800cb
:101e1c004f007800000006000000fe00a2028000c7
:101e2c00a10288009080ba001000ba00a2028800bb
:101e3c00000006000000fe00a2028000a102880043
:101e4c001000ba00a2028800000006000000fe008c
:101e5c00f23f20000001610008003a00320024002b
:101e6c00423988005039880061398800e80e020038
:101e7c00000000001000200029a7af000000200087
:101e8c00000006000000fe0029e7af00feff37004f
:101e9c000000a700130037000010a7001100370046
:101eac0061398800503988001000240040398800be
:101ebc00a0028000a10f2000a102880001002000d8
:101ecc008208bb008398bb008408bb008598bb00cc
:101edc00e80e020000000000a002880010002000a4
:101eec0029a7af0000002000000006000000fe0043
:101efc0029e7af00feff37000000a70014003700f1
:101f0c000010a70012003700613988005039880092
:101f1c00a10280001000240040398800a00f20008e
:101f2c00a0028800000020000208bb00f20f200075
:101f3c000298bb000308bb000298bb00e80e02002d
:101f4c0000000000a10288001000200029a7af00ab
:101f5c0000002000000006000000fe0029e7af0092
:101f6c00feff3700f30720008081610009003a0072
:101f7c0050398800613988002000240040398800dd
:101f8c0082398800e80e02000000000010002000da
:101f9c0029a7af0000002000000006000000fe0092
:101fac0029e7af00feff3700f307200080816100b6
:101fbc0015003a005039880061398800100024005f
:101fcc0040398800a00f2000a002880000002000eb
:101fdc0001042000f40f20003208bb000498bb0061
:101fec003208bb000490bb00e80e020000000000a9
:101ffc002aa7ec002aa7ec002100b100f6ff3a005a
:10200c001000200029a7af000000200000000600ef
:10201c00f23f2000000061000000060002c02f000b
:10202c0000006100f2ff2f0081006100000006003b
:020000040000fa
:10203c000000fa00003a80000080fa000000060060
:10204c000200fa00faff0700000f78001e0078006b
:10205c00240007000004e000020032000000280009
:10206c00710007001e0078002a0007000004e00041
:10207c0002003200000024006b0007001e007800f4
:10208c00320007000004e0000200320000202000b3
:10209c00650007001e0078003a0007000004e0000d
:1020ac0002003200000820005f0007001e007800cc
:1020bc00420007000004e00002003200000420008f
:1020cc00590007001e0078004a0007000004e000d9
:1020dc000200320000012000530007000080fa00cb
:1020ec00000006000400fa00100798000040eb0006
:1020fc00004f78001e0090000000e00002003d0040
:10210c0010c0b300004f78001e4078000080fa0029
:10211c00000006000400fa00100798000040eb00d5
:10212c00004f78009e0090000000240000806000aa
:10213c000000e0000200320010c0b300004f780035
:10214c001e4078000080fa00000006000400fa002f
:10215c00100798000040eb00004f78009e009000a4
:10216c0000202000008060000000e000020032002f
:10217c0010c0b300004f78001e4078000080fa00b9
:10218c00000006000400fa00100798000040eb0065
:10219c00004f78009e009000000820000080600036
:1021ac000000e0000200320010c0b300004f7800c5
:1021bc001e4078000080fa00000006000400fa00bf
:1021cc00100798000040eb00004f78009e00900034
:1021dc0000042000008060000000e00002003200db
:1021ec0010c0b300004f78001e4078000080fa0049
:1021fc00000006000400fa00100798000040eb00f5
:10220c00004f78001e009000700060000000e0009d
:10221c000200320010c0b300004f78001e4078005e
:10222c000080fa00000006000200fa00000f78009f
:10223c009e80ea00003a800000806000003a88002e
:10224c000080fa00000006000000fa004027ef00b2
:10225c000080fa00000006000200fa00000f78006f
:10226c00008880009e0f500002003e0020c4b30086
:10227c0003003700000021001e00400010407800d1
:10228c000080fa00000006000600fa001007980013
:10229c002107980030000700000f78002e009000f6
:1022ac009e0f500002003100ae009000010f78002c
:1022bc001e017800010021001e00900054f9070057
:1022cc00001020009e005000000021001e00400065
:1022dc0001017800800078000000210053f907000c
:1022ec00008880001e005000008888001e007800c6
:1022fc000080fa00000006000400fa00000f7800cd
:10230c00110798000a003700650007000004e00080
:10231c00070032001e007800104078001e0fe80005
:10232c00470007001e0090000000e900100798000d
:10233c001e0090000000e000f3ff3a0000000000d7
:10234c00680007000004a2000004e000fcff3a0053
:10235c000080fa00000006000000fa00881f7800d8
:10236c0002d1bf000004a2000004e0000f00320004
:10237c00221020008000eb000000210071f9070002
:10238c0010c0b30002f1b7000900370008888000c4
:10239c001c000700010021008100440080487800e7
:1023ac000800e800008888000100370000000000e9
:1023bc002f0007000004e0000400320001888000b8
:1023cc00f00f2000808f5000f0ff36000088800056
:1023dc004f0478000080fa00000006000000fa00ac
:1023ec0080002000001188002222ef00f002200063
:1023fc004011880021e2a8002342a8000080fa00c6
:10240c00000006000000fa0000000000101180001f
:10241c00610060000000e000fcff32001011800041
:10242c00620060000000e000010032002222a900de
:10243c0030118000004078000080fa000000060097
:10244c000200fa00004f780000000000111180001b
:10245c0000202000008060000000e000fbff3a003c
:10246c001e80fb00201188000080fa00000006008e
:10247c000000fa00101180000040780061406000fc
:10248c000080fb0000f0a7000000ea000000ea005a
:10249c004f00de00004078000080fa0000000600cb
:1024ac000000fa0011118000002020000080600064
:1024bc000000e00007003a001111800000402000ed
:1024cc00008060000000e0000200320010002000dc
:1024dc00010037000000eb00004078000080fa009b
:1024ec00000006000000fa00101180004800de0019
:1024fc00614060000080fb0000f0a7000000ea00d3
:10250c000000ea004f00de00004078000080fa0076
:10251c00000006000000fa00101180000080fa0094
:10252c00000006000000fa0021e2a8002342a800e7
:10253c000080fa00000006000000fa0021e2a90069
:10254c002342a9000080fa00000006000000fa00f7
:10255c000080fa00000006000000fa0028d2bf003c
:10256c000004a2000004e00017003200190007006c
:10257c000004e0000300320010c0b30028f2b700e2
:10258c00110037002ad2bf000004e0000300320023
:10259c000000eb006600070029f2b70029d2bf004b
:1025ac000004a2000004e0000200320010c0b300de
:1025bc0028f2b70028d2bf000004a2000004e000fb
:1025cc0001003200abf907005df907000080fa004a
:1025dc00000006000600fa0000c4290001002000db
:1025ec00008fbe000d003700a1ff07000004e000c3
:1025fc000a00320083ff070040479800ce4090004d
:10260c0020c6b30080cf500002003a0010c0b300c7
:10261c00100037000040eb000e0037001e00900049
:10262c001e00700000f0a7000000ea000000ea00a5
:10263c004f00de00004078000081eb008081eb0051
:10264c001e0f41005e9749000004e000e6ff3a00cf
:10265c000040eb000080fa00000006000000fa00c9
:10266c00042eef00182eef0000202000607188006f
:10267c0070792000007088000080eb00a07088004a
:10268c00f01f2000407188000c2eef00202eef0070
:10269c00342eef000a2eef001e2eef00322eef002c
:1026ac00062eef001a2eef002e2eef007069200080
:1026bc0070708800f038200010718800f00f200036
:1026cc00b0718800113a8000f00b2000008160008e
:1026dc0060042000710520002374200080497800dc
:1026ec00814978008249780080c3b300c4e6b70002
:1026fc00f1338000f00f2c00008060000080a000ff
:10270c00f0338800103a8000000178000260a000cd
:10271c00600420007105200023742000804978009b
:10272c0081497800824978000080fa000000060098
:10273c000600fa00200798002e0090000000e00030
:10274c00020032000040eb0016003700820022002d
:10275c00030020002e0090009afc07000e03780066
:10276c000002be004200200003002000060078009a
:10277c00cdfb07001e0178009e019000f0ff2f009a
:10278c00f10f20000000690081806900008070005a
:10279c0000f0a7000000ea000000ea004f00de0095
:1027ac00004078000080fa00000006000000fa00eb
:1027bc000000eb00deff07000080fa0000000600be
:1027cc000000fa0000102300203a88004827ef0090
:1027dc004e27ef0020032000303a88006027ef00de
:1027ec006227ef006427ef006627ef006a27ef00ef
:1027fc006c27ef006e27ef0072002000800720008e
:10280c00a1092000337420008049780081497800a8
:10281c00824978000001eb00600420007105200063
:10282c00237420008049780081497800824978001f
:08283c000080fa000000060014
:020000040000fa
:1028440000100000040100008000000004110000da
:1028540000010000800000002812000002000000b7
:10286400800000002a120000020000008200000024
:10287400010000002e12000004000000820000008d
:10288400ffffff00ff00000024120000040000000e
:10289400800000002c1200000200000082000000f2
:1028a400ffff000004120000200000008000000070
:0428b4000000000020
:020000040000fa
:1028b8000200fa00000f780021028000200f20009b
:1028c800008060001e007000200288000080fa006e
:1028d800000006000000fa00c3e8a800000000009d
:1028e800000000000080fa00000006000000fa0066
:1028f80091f807005aff0700b2ff07002100070000
:10290800b7fe0700f3ff070000022000e8ff0700fa
:102918000080fa00000006000200fa00000f7800ac
:102928009e007800619188000000fe000080fa0097
:10293800000006000000fa0040202100800778000f
:10294800c0212100000188000080fa000000060074
:10295800809fbe00ec8057003100780020918800ed
:102968001100780026f2b7004f00be0000000600f4
:102978000000fa00ddff0700f5fe0700f7fe07007c
:10298800feff37000000fa000080fa000000060091
:08299800080404000000000027
:020000040000fa
:020000040002f8
:04af0000ffffff0050
:020000040000fa
:020000040002f8
:04af2000ffff00002f
:020000040000fa
:020000040002f8
:04af30007fff00009f
:020000040000fa
:020000040002f8
:04af38009fff000077
:020000040000fa
:020000040002f8
:04af40009fff00006f
:020000040000fa
:020000040002f8
:04af4800ffff000007
:020000040000fa
:020000040002f8
:04af5000feff000000
:020000040000fa
:020000040002f8
:04af580000000000f5
:020000040000fa
:020000040002f8
:04af600000000000ed
:020000040000fa
:020000040002f8
:04af680000000000e5
:020000040000fa
:020000040002f8
:04af700000000000dd
:020000040000fa
:020000040002f8
:04af7800feff0000d8
:020000040000fa
:020000040002f8
:04af8000ffff0000cf
:020000040000fa
:020000040002f8
:04af8800ffff0000c7
:00000001FF
