:020000040000fa
:08000000ec22040000000000e6
:020000040000fa
:1000080004220000082200000c2200001022000038
:1000180014220000182200001c2200000022000008
:100028002022000024220000282200002c220000a8
:100038003022000034220000382200003c22000058
:100048004022000044220000482200004c22000008
:100058005022000054220000582200005c220000b8
:100068006022000064220000682200006c22000068
:100078007022000000220000002200000022000080
:1000880074220000782200007c22000080220000f8
:1000980084220000882200008c22000090220000a8
:1000a80094220000982200009c220000a022000058
:1000b800a4220000a8220000ac22000000220000b8
:1000c80000220000002200000022000000220000a0
:1000d8000022000000220000002200000022000090
:1000e8000022000000220000002200000022000080
:1000f8000022000000220000002200000022000070
:1001080000220000b02200000022000000220000af
:10011800002200000022000000220000002200004f
:1001280000220000b4220000b822000000220000d3
:100138000022000000220000bc2200000022000073
:10014800002200000022000000220000002200001f
:1001580000220000c022000000220000002200004f
:1001680000220000002200000022000000220000ff
:1001780000220000002200000022000000220000ef
:1001880000220000002200000022000000220000df
:100198000022000000220000c4220000c822000043
:1001a800cc220000002200000022000000220000f3
:1001b80000220000002200000022000000220000af
:1001c800002200000022000000220000002200009f
:1001d800002200000022000000220000002200008f
:1001e800002200000022000000220000002200007f
:1001f800002200000022000000220000002200006f
:10020800002200000022000000220000002200005e
:10021800002200000022000000220000002200004e
:10022800002200000022000000220000002200003e
:10023800002200000022000000220000002200002e
:10024800002200000022000000220000002200001e
:100258000022000000220000d0220000002200003e
:1002680000220000002200000022000000220000fe
:1002780000220000002200000022000000220000ee
:1002880000220000002200000022000000220000de
:1002980000220000002200000022000000220000ce
:1002a80000220000002200000022000000220000be
:1002b80000220000002200000022000000220000ae
:1002c800002200000022000000220000002200009e
:1002d80000220000d42200000022000000220000ba
:1002e800002200000022000000220000002200007e
:1002f8000022000000220000d8220000dc220000ba
:10030800e0220000e4220000e822000000220000b1
:10031800002200000022000000220000002200004d
:10032800002200000022000000220000002200003d
:10033800002200000022000000220000002200002d
:10034800002200000022000000220000002200001d
:10035800002200000022000000220000002200000d
:1003680000220000002200000022000000220000fd
:1003780000220000002200000022000000220000ed
:1003880000220000002200000022000000220000dd
:1003980000220000002200000022000000220000cd
:1003a80000220000002200000022000000220000bd
:1003b80000220000002200000022000000220000ad
:1003c800002200000022000000220000002200009d
:1003d800002200000022000000220000002200008d
:1003e800002200000022000000220000002200007d
:0803f8000022000000220000b9
:020000040000fa
:104000000020000000000000fe530000010000003e
:10401000ec2204000000000000000000020000008c
:104020000000000002000000020000000400000088
:0c40300000000000000000000000000084
:020000040000fa
:10403c000000fa00003a80000080fa000000060040
:10404c000200fa00faff0700000f78001e0078004b
:10405c00240007000004e0000200320000002800e9
:10406c00710007001e0078002a0007000004e00021
:10407c0002003200000024006b0007001e007800d4
:10408c00320007000004e000020032000020200093
:10409c00650007001e0078003a0007000004e000ed
:1040ac0002003200000820005f0007001e007800ac
:1040bc00420007000004e00002003200000420006f
:1040cc00590007001e0078004a0007000004e000b9
:1040dc000200320000012000530007000080fa00ab
:1040ec00000006000400fa00100798000040eb00e6
:1040fc00004f78001e0090000000e00002003d0020
:10410c0010c0b300004f78001e4078000080fa0009
:10411c00000006000400fa00100798000040eb00b5
:10412c00004f78009e00900000002400008060008a
:10413c000000e0000200320010c0b300004f780015
:10414c001e4078000080fa00000006000400fa000f
:10415c00100798000040eb00004f78009e00900084
:10416c0000202000008060000000e000020032000f
:10417c0010c0b300004f78001e4078000080fa0099
:10418c00000006000400fa00100798000040eb0045
:10419c00004f78009e009000000820000080600016
:1041ac000000e0000200320010c0b300004f7800a5
:1041bc001e4078000080fa00000006000400fa009f
:1041cc00100798000040eb00004f78009e00900014
:1041dc0000042000008060000000e00002003200bb
:1041ec0010c0b300004f78001e4078000080fa0029
:1041fc00000006000400fa00100798000040eb00d5
:10420c00004f78001e009000700060000000e0007d
:10421c000200320010c0b300004f78001e4078003e
:10422c000080fa00000006000200fa00000f78007f
:10423c009e80ea00003a800000806000003a88000e
:10424c000080fa00000006000000fa004027ef0092
:10425c000080fa00000006000000fa0000102300a5
:10426c00203a88004827ef004e27ef00200320005b
:10427c00303a88006027ef006227ef006427ef00d8
:10428c006627ef006a27ef006c27ef006e27ef0020
:10429c007200200080072000a10920003374200048
:1042ac008049780081497800824978000001eb0050
:1042bc0060042000710520002374200080497800e0
:1042cc0081497800824978000080fa0000000600dd
:1042dc000000fa00042eef0000012000c0708800de
:1042ec002c2eef007079200000708800f0fe2f005b
:1042fc00a0708800f03f2000407188000c2eef0069
:10430c00202eef00342eef000a2eef001e2eef00b1
:10431c00322eef00062eef001a2eef002e2eef009d
:10432c007069200070708800f038200010718800cf
:10433c00f03f2000b07188000080fa0000000600f9
:10434c000200fa00000f780021028000200f2000ec
:10435c00008060001e007000200288000080fa00bf
:10436c00000006000000fa00c3e8a80000000000ee
:10437c00000000000080fa00000006000000fa00b7
:10438c00d3ff070018000700b3ff0700f5ff070075
:10439c0000022000eaff07000080fa00000006007f
:1043ac000200fa00000f78009e007800218188003e
:1043bc000000fe000080fa00000006000000fa0079
:1043cc000000210080077800800121000001880096
:0843dc000080fa000000060059
:020000040000fa
:1043e4000000fa00e7ff0700188ea800feff370060
:0c43f4000000fa000080fa000000060043
:020000040000fa
:08440000f42404000000000098
:020000040000fa
:08440800002204000000000086
:020000040000fa
:0844100000220400000000007e
:020000040000fa
:08441800002204000000000076
:020000040000fa
:0844200000220400000000006e
:020000040000fa
:08442800002204000000000066
:020000040000fa
:0844300000220400000000005e
:020000040000fa
:08443800002204000000000056
:020000040000fa
:0844400000220400000000004e
:020000040000fa
:08444800002204000000000046
:020000040000fa
:0844500000220400000000003e
:020000040000fa
:08445800002204000000000036
:020000040000fa
:0844600000220400000000002e
:020000040000fa
:08446800002204000000000026
:020000040000fa
:0844700000220400000000001e
:020000040000fa
:08447800002204000000000016
:020000040000fa
:0844800000220400000000000e
:020000040000fa
:08448800002204000000000006
:020000040000fa
:084490000022040000000000fe
:020000040000fa
:084498000022040000000000f6
:020000040000fa
:0844a0000022040000000000ee
:020000040000fa
:0844a8000022040000000000e6
:020000040000fa
:0844b0000022040000000000de
:020000040000fa
:0844b8000022040000000000d6
:020000040000fa
:0844c0000022040000000000ce
:020000040000fa
:0844c8000022040000000000c6
:020000040000fa
:0844d0000022040000000000be
:020000040000fa
:0844d8000022040000000000b6
:020000040000fa
:0844e0000022040000000000ae
:020000040000fa
:0844e8000022040000000000a6
:020000040000fa
:0844f00000220400000000009e
:020000040000fa
:0844f800002204000000000096
:020000040000fa
:0845000000220400000000008d
:020000040000fa
:08450800002204000000000085
:020000040000fa
:0845100000220400000000007d
:020000040000fa
:08451800002204000000000075
:020000040000fa
:0845200000220400000000006d
:020000040000fa
:08452800002204000000000065
:020000040000fa
:0845300000220400000000005d
:020000040000fa
:08453800002204000000000055
:020000040000fa
:0845400000220400000000004d
:020000040000fa
:08454800002204000000000045
:020000040000fa
:0845500000220400000000003d
:020000040000fa
:08455800002204000000000035
:020000040000fa
:0845600000220400000000002d
:020000040000fa
:08456800002204000000000025
:020000040000fa
:0845700000220400000000001d
:020000040000fa
:08457800002204000000000015
:020000040000fa
:0845800000220400000000000d
:020000040000fa
:08458800002204000000000005
:020000040000fa
:084590000022040000000000fd
:020000040000fa
:084598000022040000000000f5
:020000040000fa
:0845a0000022040000000000ed
:020000040000fa
:0845a8000022040000000000e5
:020000040000fa
:0845b0000022040000000000dd
:020000040000fa
:0845b8000022040000000000d5
:020000040000fa
:0845c0000022040000000000cd
:020000040000fa
:0845c8000022040000000000c5
:020000040000fa
:0845d0000022040000000000bd
:020000040000fa
:1045d8006f0221000eff22000e018800000000007b
:1045e800000020000000e00002003200000120006e
:1045f8002002880014000700fb0007000000e0000c
:1046080003003a00a04f22000100200002003700fa
:104618000000200001002000810f7000010032001e
:104628000f000700000020000000e0000200320038
:104638000000020000000000f2210200000000005b
:104648000040da000000fe00200020000000e0002a
:1046580002003200100020009001880000000600cf
:10466800a1028800800478000000eb001f003700da
:10467800e284440054a0b4009905ba00e2844400de
:1046880054a0b4009906ba00e284440054a0b400cf
:104698000006eb00476fde00fd07b200ae018800a0
:1046a800636ce10003003a000ad801000000eb0047
:1046b8000e003700606ce10008003a00004deb0086
:1046c8000a05e800020039003420ec000af0a000d6
:1046d8008b05e900f9ff3e00040037006168e1003e
:1046e800010032000086eb000b00070019c7ba0072
:1046f8000e04e0001905ba0003003a000a00e000c1
:10470800dbff3a0000000600fe07b200ae02880098
:104718008a047800f5ff37000cd0a300e20f4d00a3
:104728001c003b0089027800354dba000a05e800f4
:10473800020039003420ec000af0a0008b05e900e3
:104748000f003200254dba000a05e80002003900c2
:104758003420ec000af0a0008b05e90008003200c4
:104768000c00e0000600320015cdba000a05e8008a
:10477800020039003420ec000af0a0008b05e900a3
:104788008984e80054a0b4000b00e000e2ff3a007e
:10479800000006009902ba00055d78008b05e90063
:1047a800f7ff3200c82ade00055d78008b05e900b6
:1047b800f3ff32000c00e000f1ff320019ddba000f
:1047c800eeff37003600f800809fbe00829fbe00d3
:1047d800849fbe00869fbe000000fa00c028a90082
:1047e8000000eb00effe07000080fa004f03be0058
:1047f8004f02be004f01be004f00be003600f90058
:10480800004006003600f800809fbe00829fbe0070
:10481800849fbe00869fbe000000fa00e8fe0700e5
:10482800c048a90010002000defe07000080fa0042
:104838004f03be004f02be004f01be004f00be0036
:104848003600f900004006003600f800809fbe00e0
:10485800829fbe00849fbe00869fbe000000fa00b3
:10486800c068a90020002000cefe07000080fa00e2
:104878004f03be004f02be004f01be004f00be00f6
:104888003600f900004006003600f800809fbe00a0
:10489800829fbe00849fbe00869fbe000000fa0073
:1048a800c088a90030002000befe07000080fa0082
:1048b8004f03be004f02be004f01be004f00be00b6
:1048c8003600f900004006003600f800809fbe0060
:1048d800829fbe00849fbe00869fbe000000fa0033
:1048e800c0a8a90040002000aefe07000080fa0022
:1048f8004f03be004f02be004f01be004f00be0076
:104908003600f900004006003600f800809fbe001f
:10491800829fbe00849fbe00869fbe000000fa00f2
:10492800c608a900700020009efe07000080fa005b
:104938004f03be004f02be004f01be004f00be0035
:104948003600f900004006003600f800809fbe00df
:10495800829fbe00849fbe00869fbe000000fa00b2
:104968002146800000102000008060000000e00068
:1049780003003200c508a900c000200089fe070016
:104988002146800000002800008060000000e00050
:1049980003003200c5e8a9008000200081fe07005e
:1049a8002146800000022000008060000000e00036
:1049b80003003200c4a8a9009000200079fe070077
:1049c80020468000700060000000e0000300320014
:1049d800c488a900a000200072fe0700ffff37006e
:0c49e8000040da000000fe0000000500a6
:020000040000fa
:1049f400241000000200000082000000ffff0000fd
:104a040000100000200000008000000020100000c2
:0c4a140004000000800000000000000012
:020000040000fa
:104a2000809fbe00ec805700310078000081880034
:104a30001100780022f0b7004f00be000000060011
:020000040000fa
:044a4000ffff37003d
:020000040000fa
:020000040002f8
:04af0000ffffff0050
:020000040000fa
:020000040002f8
:04af2000ffff00002f
:020000040000fa
:020000040002f8
:04af30007fff00009f
:020000040000fa
:020000040002f8
:04af38009fff000077
:020000040000fa
:020000040002f8
:04af40009fff00006f
:020000040000fa
:020000040002f8
:04af4800ffff000007
:020000040000fa
:020000040002f8
:04af5000feff000000
:020000040000fa
:020000040002f8
:04af580000000000f5
:020000040000fa
:020000040002f8
:04af600000000000ed
:020000040000fa
:020000040002f8
:04af680000000000e5
:020000040000fa
:020000040002f8
:04af700000000000dd
:020000040000fa
:020000040002f8
:04af7800feff0000d8
:020000040000fa
:020000040002f8
:04af8000ffff0000cf
:020000040000fa
:020000040002f8
:04af8800ffff0000c7
:00000001FF
