:020000040000fa
:080000000002040000000000f2
:020000040000fa
:1000080004260000082600000c2600001026000028
:1000180014260000182600001c26000000260000f8
:100028002026000024260000282600002c26000098
:100038003026000034260000382600003c26000048
:100048004026000044260000482600004c260000f8
:100058005026000054260000582600005c260000a8
:100068006026000064260000682600006c26000058
:100078007026000000260000002600000026000070
:1000880074260000782600007c26000080260000e8
:1000980084260000882600008c2600009026000098
:1000a80094260000982600009c260000a026000048
:1000b800a4260000a8260000ac26000000260000a8
:1000c8000026000000260000002600000026000090
:1000d8000026000000260000002600000026000080
:1000e8000026000000260000002600000026000070
:1000f8000026000000260000002600000026000060
:1001080000260000b026000000260000002600009f
:10011800002600000026000000260000002600003f
:1001280000260000b4260000b826000000260000c3
:100138000026000000260000bc2600000026000063
:10014800002600000026000000260000002600000f
:1001580000260000c026000000260000002600003f
:1001680000260000002600000026000000260000ef
:1001780000260000002600000026000000260000df
:1001880000260000002600000026000000260000cf
:100198000026000000260000c4260000c826000033
:1001a800cc260000002600000026000000260000e3
:1001b800002600000026000000260000002600009f
:1001c800002600000026000000260000002600008f
:1001d800002600000026000000260000002600007f
:1001e800002600000026000000260000002600006f
:1001f800002600000026000000260000002600005f
:10020800002600000026000000260000002600004e
:10021800002600000026000000260000002600003e
:10022800002600000026000000260000002600002e
:10023800002600000026000000260000002600001e
:10024800002600000026000000260000002600000e
:100258000026000000260000d0260000002600002e
:1002680000260000002600000026000000260000ee
:1002780000260000002600000026000000260000de
:1002880000260000002600000026000000260000ce
:1002980000260000002600000026000000260000be
:1002a80000260000002600000026000000260000ae
:1002b800002600000026000000260000002600009e
:1002c800002600000026000000260000002600008e
:1002d80000260000d42600000026000000260000aa
:1002e800002600000026000000260000002600006e
:1002f8000026000000260000d8260000dc260000aa
:10030800e0260000e4260000e826000000260000a1
:10031800002600000026000000260000002600003d
:10032800002600000026000000260000002600002d
:10033800002600000026000000260000002600001d
:10034800002600000026000000260000002600000d
:1003580000260000002600000026000000260000fd
:1003680000260000002600000026000000260000ed
:1003780000260000002600000026000000260000dd
:1003880000260000002600000026000000260000cd
:1003980000260000002600000026000000260000bd
:1003a80000260000002600000026000000260000ad
:1003b800002600000026000000260000002600009d
:1003c800002600000026000000260000002600008d
:1003d800002600000026000000260000002600007d
:1003e800002600000026000000260000002600006d
:0803f8000026000000260000b1
:020000040000fa
:100400002f6321000eff22000e0188000000000073
:10041000000020000000e000020032000001200087
:100420002002880014000700fb0007000000e00025
:1004300003003a0020b6210001002000020037002e
:100440000000200001002000810f70000100320038
:100450000f000700000020000000e0000200320052
:1004600000000200000000003e1c0200000000002e
:100470000040da000000fe00800220000000e000e2
:1004800002003200002020009001880000000600d9
:10049000a1028800800478000000eb001f003700f4
:1004a000e284440054a0b4009905ba00e2844400f8
:1004b00054a0b4009906ba00e284440054a0b400e9
:1004c0000006eb00476fde00fd07b200ae018800ba
:1004d000636ce10003003a000ad801000000eb0061
:1004e0000e003700606ce10008003a00004deb00a0
:1004f0000a05e800020039003420ec000af0a000f0
:100500008b05e900f9ff3e00040037006168e10057
:10051000010032000086eb000b00070019c7ba008b
:100520000e04e0001905ba0003003a000a00e000da
:10053000dbff3a0000000600fe07b200ae028800b2
:100540008a047800f5ff37000cd0a300e20f4d00bd
:100550001c003b0089027800354dba000a05e8000e
:10056000020039003420ec000af0a0008b05e900fd
:100570000f003200254dba000a05e80002003900dc
:100580003420ec000af0a0008b05e90008003200de
:100590000c00e0000600320015cdba000a05e800a4
:1005a000020039003420ec000af0a0008b05e900bd
:1005b0008984e80054a0b4000b00e000e2ff3a0098
:1005c000000006009902ba00055d78008b05e9007d
:1005d000f7ff3200c82ade00055d78008b05e900d0
:1005e000f3ff32000c00e000f1ff320019ddba0029
:1005f000eeff37003600f800809fbe00829fbe00ed
:10060000849fbe00869fbe000000fa00c028a9009b
:100610000000eb00830c07000080fa004f03be00cf
:100620004f02be004f01be004f00be003600f90071
:10063000004006003600f800809fbe00829fbe008a
:10064000849fbe00869fbe000000fa007c0c07005d
:10065000c048a90010002000720c07000080fa00ba
:100660004f03be004f02be004f01be004f00be0050
:100670003600f900004006003600f800809fbe00fa
:10068000829fbe00849fbe00869fbe000000fa00cd
:10069000c068a90020002000620c07000080fa005a
:1006a0004f03be004f02be004f01be004f00be0010
:1006b0003600f900004006003600f800809fbe00ba
:1006c000829fbe00849fbe00869fbe000000fa008d
:1006d000c088a90030002000520c07000080fa00fa
:1006e0004f03be004f02be004f01be004f00be00d0
:1006f0003600f900004006003600f800809fbe007a
:10070000829fbe00849fbe00869fbe000000fa004c
:10071000c0a8a90040002000420c07000080fa0099
:100720004f03be004f02be004f01be004f00be008f
:100730003600f900004006003600f800809fbe0039
:10074000829fbe00849fbe00869fbe000000fa000c
:10075000c608a90070002000320c07000080fa00d3
:100760004f03be004f02be004f01be004f00be004f
:100770003600f900004006003600f800809fbe00f9
:10078000829fbe00849fbe00869fbe000000fa00cc
:100790002146800000102000008060000000e00082
:1007a00003003200c508a900c00020001d0c07008e
:1007b0002146800000002800008060000000e0006a
:1007c00003003200c5e8a90080002000150c0700d6
:1007d0002146800000022000008060000000e00050
:1007e00003003200c4a8a900900020000d0c0700ef
:1007f00020468000700060000000e000030032002e
:10080000c488a900a0002000060c0700ffff3700e5
:100810000040da000000fe000000050080017800c2
:1008200002003700b15978000201e9000200e0003f
:10083000fcff3a0000000600800178008102780089
:10084000810f50004100320002824000840f5000ae
:100850000300310002024000848f50000100390083
:10086000eeff370000826800810f50001b0031004e
:100870000408a30005003200150037000200e00064
:10088000320032000201e900b15978000308a300e8
:10089000faff3a0003037800820278000102780030
:1008a00002003700b41978000281e900e10f51001d
:1008b000fcff3e00618162000500a100850143004c
:1008c0008582400002003700b55978000201e90036
:1008d0000200e000fcff3a00000006000408a3004c
:1008e00018003a00060037000200e000170032004e
:1008f0000201e90082014000028240009449780030
:10090000820140000308a300f7ff3a00820178004b
:10091000040037000281e9000202400082824000a8
:10092000150a7800e10f5100faff3e006181610075
:10093000040037000201e900820140000282400009
:10094000944978000200e000faff3a000000060037
:10095000889fbe008a9fbe00800478000200e000ed
:100960005b00320001407800814c780082814400b5
:10097000f1f99f00e20f51005500360091449800b4
:10098000a1449800e1f99f00d1f99f00e60f5100c2
:100990004f003600b1449800c1f99f00e80f5100a4
:1009a0004b0036000905ea00630565000a8444002f
:1009b0000a055100c1ff2f00010565000080fb0002
:1009c0008000eb00121020001310200044000700ec
:1009d000008cbe000a01440060b99f0071b99f00fd
:1009e000e80f55003a0036002004980031049800c2
:1009f000400498005104980020b99f0031b99f002d
:100a000040b99f0051b99f00f80f550030003600e3
:100a10006004980071049800000c9800110c980074
:100a2000200c9800310c9800400c9800510c980054
:100a300020b19f0031b19f0040b19f0051b19f0094
:100a400060b19f0071b19f0000b99f0011b99f0074
:100a5000640164007801410002044400020555006d
:100a60006011b8000203be000002be000403be0015
:100a70006022b800000072008180720002017300e1
:100a80008381730010003700009cbe000294be00fa
:100a90004004980051049800620498007304980080
:100aa000000c9800110c9800220c9800330c980050
:100ab000400c9800510c9800620c9800730c980040
:100ac0000a02b1000802b000ff0f5500eeff3e0021
:100ad000090078004f05be004f04be00000006006c
:100ae000020ab900001bb9000200b80081004200f0
:080af000810043000000060034
:020000040000fa
:100af8000b080000000000000000000000000000db
:100b080000000000000100000024000000000000b8
:100b1800fe53000001000000090000000000000072
:100b280000000000000000000000000000010000bc
:100b38000024000000000000002400000000000065
:020000040000fa
:100b48000000fa000080fa00000006000600fa0023
:100b5800881f7800e3090700000f78001e0078005e
:100b68000000e00002003a001000200048003700b2
:100b78001e007800ea0f500002003e00200020000e
:100b8800430037000000eb00960907002047980053
:100b980010002000930907000084fb0020002000bb
:100ba800900907000080fb004800dd0000004400b9
:100bb8006b00400020079800ae0090000010200055
:100bc800808f5000060036002e409000e34f500002
:100bd80003003200d00f2000370007002c00370038
:100be8002e4090000080fb00e30f50001b003200f5
:100bf800e30f500007003c00e10f500013003200e3
:100c0800e10f50000f003c000000e000110032002e
:100c18001d003700e90f500012003200e90f5000a4
:100c280003003c00e80f50001100320016003700a6
:100c3800ea0f500010003200eb0f50001000320095
:100c480011003700ff00070011003700830107007b
:100c58000f0037002a0007000d0037008b0007003f
:100c68000b003700710007000000eb000800370098
:100c7800d9010700060037007e020700040037008c
:100c88009d02070002003700f00f20000a0007004d
:100c98004f0478000080fa00000006000200fa0005
:100ca800c0402200000f78001e00780000000100fc
:100cb8000080fa00000006000e00fa0060079800a5
:100cc800b10020004010210052090700b2002000a6
:100cd800411021000e007800cefe07006e00900043
:100ce80000407800304f9800c10020000e007800c6
:100cf80064090700300020000080fa0000000600a8
:100d08002600fa0011000900001feb00005feb004d
:100d18005e02b100de009000f00f2000008060004d
:100d28000090a00050079800ee00900000f02f00ff
:100d3800008060000000a00060079800ee009000ae
:100d4800f00f20000080600060079800fe0090000f
:100d580000f02f00008060000000a00070079800dd
:100d68008e089000f00f2000808060000060250051
:100d780001007000000f98009e08900000f02f00fe
:100d8800808060004003200001007000100f980070
:100d9800be089000f00f20000080600000b0a000a6
:100da800300f9800ce08900000f02f0000806000ff
:100db800400f98001e060700f10f20008100600018
:100dc800c808dd00ae099000f20f20000281610022
:100dd80082807000210f9800c800de00f00f20000c
:100de800008060003e09900001f02f008100610042
:100df80001007000300f9800b10020004010210061
:100e080004090700510220000e0078001d090700a0
:100e18000000eb000080fa00000006000000fa0065
:100e28000000fe000080fa00000006000c00fa0036
:100e3800005928008e007800b0187800a0107800bb
:100e4800e480400064004000b0187800a0107800ea
:100e5800e480400064004000b0187800a0107800da
:100e6800e480400064004000b100200040102100f0
:100e7800e8080700c10020000e00780001090700fb
:100e8800e6ff07000080fa00000006000e00fa00e6
:100e9800881f780040102100000f7800b100200062
:100ea80040102100db0807000e80e800b200200097
:100eb8004110210057fe0700e0cfb300504f9800c3
:100ec8001e007800b04090008180fb0040429000f6
:100ed8000482fb004822dd00848070000101780054
:100ee800d04090008180fb00604090000080fb00b3
:100ef8004800dd0000807000800178001e00780046
:100f0800904090008180fb00204090000080fb0012
:100f18004800dd00008070006103b8001e02780000
:100f2800f44290008582fb00044c90000884fb008a
:100f38004844dd008882720005007800944a9000d9
:100f48008582fb00244a90000482fb004822dd00d1
:100f580004827200840078000202be000601be000e
:100f6800260507000000e00002003a0010c0b300a8
:100f7800504f98000e80e800c1002000c10807000b
:100f88001e017800b24190008381fb00424290002c
:100f98000482fb004822dd00848171000300780090
:100fa800d24190008381fb00624190000281fb00e6
:100fb8004811dd0002817100820078000081ea009a
:100fc8008181ea001e007800f10f20008100610095
:100fd80030429000604262008140720031409800c7
:100fe800c810de00404290006042620081407200fa
:100ff80041409800f10f200081806100504290002c
:10100800604262008140720051409800c818de00ba
:10101800604190006041610081407100614098002a
:101028005e489000e14f500002003a000000eb00db
:1010380001003700300020004f0478000080fa00db
:10104800000006001000fa00889fbe004010210032
:10105800000f780020002000620807000080fb00d5
:101068004800dd0010079800100020005d08070008
:101078000080fb009e00900001007000100798009f
:10108800980807009e009000eb804000810f5000f8
:1010980002003100200020006d0037001e00900083
:1010a8006b004000800078004010210059080700bc
:1010b80064004700b200200041102100d5fd070060
:1010c80010c0b300704f98009e009000500f200091
:1010d800808f50002b003e001e007800b04090002a
:1010e8008180fb00404290000482fb004822dd0022
:1010f8008480700001017800d04090008180fb005e
:10110800604090000080fb004800dd000080700017
:10111800800178009e007800eb8240001e0090005d
:101128006104b8001e027800744390000683fb0037
:10113800844b90008783fb00c83bdd0007037300e6
:1011480006007800144b90000683fb00244a9000a8
:101158000482fb004822dd0004027300840078004a
:101168000203be00050278000801be00f103070073
:101178000000e00005003200e0cfb300704f980097
:1011880002003700e0cfb300704f980064004700ba
:10119800c10020003b0807001e017800b241900002
:1011a8008381fb00424290000482fb004822dd005c
:1011b8008481710003007800d24190008381fb0094
:1011c800624190000281fb004811dd00028171003c
:1011d800820078000081ea008181ea001e00780020
:1011e800f10f2000810061003042900060426200ef
:1011f8008140720031409800c810de0040429000e3
:10120800604262008140720041409800f10f200066
:10121800818061005042900060426200814072000b
:1012280051409800c818de0060419000604161009c
:1012380081407100614098007e489000e14f500065
:1012480002003a000000eb000100370030002000e7
:101258004f04be000080fa00000006000401fa00f6
:1012680040102100000f7800b1002000401021003c
:10127800e807070064004700b20020004110210081
:1012880064fd07001e007800904090008180fb00fc
:10129800204090000080fb004800dd0000807000c6
:1012a80080007800400f2000808f50002e003e0004
:1012b8001e017800f24190008381fb00024a9000f1
:1012c8000482fb004822dd0084817100030078005d
:1012d800924990008381fb00224990000281fb0023
:1012e8004811dd0002817100820078001e0178003b
:1012f800924190008381fb00224190000281fb0013
:101308004811dd00028171008001eb006402470092
:101318006c0342000002be0006007800e8030700e4
:10132800100798001e0090000000e00003003a003b
:1013380010c0b300704f980015003700e0cfb3001d
:10134800704f9800ae009000f00f20000080600001
:1013580020079800be00900000f02f000080600079
:10136800300798000a003700e0cfb300704f9800ac
:10137800ae009000f00f2000008060002007980069
:10138800be00900000f02f00008060003007980039
:101398002e0090004800de003e019000f10f200072
:1013a80081006100c808dd0001007000ec00400009
:1013b80064004700b30707007e489000e14f5000e3
:1013c80002003a000000eb00010037003000200066
:1013d8000080fa00000006001a00fa00889fbe008c
:1013e8008a9fbe0040102100300798006000b800b6
:1013f800008fbe00b10020004010210085070700c3
:1014080068004700b20020004110210001fd0700dc
:101418003e019000f24190008381fb00024a900057
:101428000482fb004822dd008481710003007800fb
:10143800924990008381fb00224990000281fb00c1
:101448004811dd0002817100820078003e019000a1
:10145800924190008381fb00224190000281fb00b1
:101468004811dd00028171000201d1008001eb000a
:10147800000041008180490061025000e08258006c
:101488003e019000f24190008381fb00024b9000e6
:101498000683fb004833dd00868171000300780075
:1014a800924990008381fb00224990000281fb0051
:1014b8004811dd0002817100820078000401be003d
:1014c800060307000004e000530032000000eb00b0
:1014d800200798003d0037003e019000f24190003f
:1014e8008381fb00024a90000482fb004822dd0051
:1014f8008481710003007800924990008381fb0089
:10150800224990000281fb004811dd000281710030
:10151800820078002e0190000201d1008001eb00ca
:101528000000410081804900760347000002be00a8
:101538004200200003002000060078006003070036
:101548003e099000ce099000f0ff2f000100200016
:101558000202780003017800800178008100780099
:1015680003006200810061008104780000047800b3
:101578000802be003e089000ce0890004009de0038
:1015880003002000f00f2000010020000203780073
:10159800030178008001780081007800030063006f
:1015a8008100610081057800000578000a00be000e
:1015b80004004000858048001e0f40005e974800e8
:1015c8002e00900064004000200798003e00900024
:1015d800904090008180fb00204090000080fb003c
:1015e8004800dd0000807000800078002e00900028
:1015f800808f5000b8ff3e001e007800200f980032
:1016080010c0b3003057980068004700e100200080
:101618001c0707000d003700e0cfb30030579800d3
:10162800ce009000f00f2000008060004007980076
:10163800de00900000f02f00008060005007980046
:1016480068004700c10020000e0707003e509000c8
:10165800e14f500002003a000000eb0001003700a3
:10166800300020004f05be004f04be000080fa0085
:10167800000006000e00fa00b10020000e007800fd
:10168800e40607000000eb003d0407000004a20088
:101698000004e00003003200c0cfb300304f9800d0
:1016a8000200370010c0b300304f98009e00780049
:1016b800f00f200000806000000f78009e0090006e
:1016c80000f02f000080600010079800c100200083
:1016d8000e007800eb0607003e489000e14f5000ee
:1016e80002003a000000eb00010037003000200043
:1016f8000080fa00000006001400fa00c157280014
:1017080009000900311f78004e01b100b100200026
:1017180040102100bf060700410120000e0078009c
:10172800d80607000000eb000080fa000000060061
:101738000000000000000000ab41000041810000f3
:10174800fdc20000c383000056830000820200002f
:1017580051c40000c6860000fa8500008707000013
:10176800ac0600000505000007470000448400009f
:1017780009c90000cc8c0000a28800008d0d000073
:10178800f40b00000f0f00005f4a00004e8e0000af
:10179800580d00000a0a0000f34c00004b8b0000b3
:1017a800a5cf0000c98900000e8e0000880800003f
:1017b800b9d30000d89800001292000099190000cf
:1017c800441100001b1b0000ef5000005a9a000053
:1017d800e81700001e1e0000435600005f9f00002f
:1017e80015d50000dd9d0000be9400009c1c000083
:1017f800b01a0000141400001b5b0000559500008f
:101808004dd80000d7970000e69900009616000012
:10181800e1de0000d29200004a9f0000931300000e
:101828001c1c000011110000b75d00005090000062
:10183800d9e60000f0b0000072a70000b131000046
:1018480024240000333300008f65000072b20000ca
:1018580088220000363600002363000077b70000b6
:1018680075e00000f5b50000dea10000b43400000a
:10187800d02f00003c3c00007b6e00007dbd0000c6
:101888002ded0000ffbf000086ac0000be3e00004a
:1018980081eb0000faba00002aaa0000bb3b000056
:1018a8007c29000039390000d768000078b80000aa
:1018b8006035000028280000cb74000069a90000ea
:1018c8009df70000ebab000036b60000aa2a000026
:1018d80031f10000eeae00009ab00000af2f00001a
:1018e800cc3300002d2d0000677200006cac0000a6
:1018f80069fc0000e4a40000c2bd0000a5250000aa
:10190800943e0000272700003f7f000066a60000e5
:1019180038380000222200009379000063a30000f9
:10192800c5fa0000e1a100006ebb0000a020000085
:10193800198c0000a0e00000b2cd0000e1610000b9
:10194800e44e0000636300004f0f000022e2000035
:101958004848000066660000e309000027e7000029
:10196800b58a0000a5e500001ecb0000e464000075
:10197800104500006c6c0000bb0400002ded000059
:10198800ed870000afef000046c60000ee6e0000d5
:1019980041810000aaea0000eac00000eb6b0000e9
:1019a800bc430000696900001702000028e8000035
:1019b800a05f0000787800000b1e000039f90000d5
:1019c8005d9d0000bbfb0000f6dc0000fa7a000019
:1019d800f19b0000befe00005ada0000ff7f000005
:1019e8000c5900007d7d0000a71800003cfc000099
:1019f800a9960000b4f4000002d70000f5750000b5
:101a08005454000077770000ff15000036f60000f8
:101a1800f8520000727200005313000033f3000004
:101a280005900000b1f10000aed10000f070000098
:101a3800c06a0000505000006b2b000011d100005c
:101a48003da8000093d3000096e90000d2520000a0
:101a580091ae000096d600003aef0000d75700007c
:101a68006c6c000055550000c72d000014d4000010
:101a7800c9a300009cdc000062e20000dd5d0000fc
:101a8800346100005f5f00009f2000001ede000040
:101a9800986700005a5a0000332600001bdb00003c
:101aa80065a5000099d90000cee40000d8580000d0
:101ab80079b9000088c80000d2f80000c9490000c0
:101ac800847b00004b4b00002f3a00000aca00003c
:101ad800287d00004e4e0000833c00000fcf000020
:101ae800d5bf00008dcd00007efe0000cc4c00006c
:101af8007070000044440000db31000005c50000a0
:101b08008db2000087c7000026f30000c64600001b
:101b180021b4000082c200008af50000c34300001f
:101b2800dc760000414100007737000000c000006b
:101b380099590000004000003218000041c100001f
:101b4800649b0000c3c30000cfda0000824200009b
:101b5800c89d0000c6c6000063dc0000874700007f
:101b6800355f0000054500009e1e000044c40000cb
:101b780090900000cccc00003bd100008d4d0000bf
:101b88006d5200000f4f0000c61300004ece00003b
:101b9800c15400000a4a00006a1500004bcb00003f
:101ba8003c960000c9c9000097d70000884800008b
:101bb800208a0000d8d800008bcb0000995900007b
:101bc800dd4800001b5b0000760900005ada0000bf
:101bd800714e00001e5e0000da0f00005fdf00009b
:101be8008c8c0000dddd000027cd00009c5c00002f
:101bf80029430000145400008202000055d500005b
:101c0800d4810000d7d700007fc00000965600009e
:101c180078870000d2d20000d3c60000935300009a
:101c280085450000115100002e04000050d000002e
:101c380040bf0000f0f00000ebfe0000b1710000b2
:101c4800bd7d000033730000163c000072f20000f6
:101c5800117b000036760000ba3a000077f70000e2
:101c6800ecb90000f5f5000047f80000b474000076
:101c7800497600003c7c0000e23700007dfd000052
:101c8800b4b40000ffff00001ff50000be7e000096
:101c980018b20000fafa0000b3f30000bb7b0000a2
:101ca800e5700000397900004e31000078f8000036
:101cb800f96c000028680000522d000069e9000056
:101cc80004ae0000ebeb0000afef0000aa6a0000d2
:101cd800a8a80000eeee000003e90000af6f0000c6
:101ce800556a00002d6d0000fe2b00006cec000012
:101cf800f0a50000e4e400005be40000a565000036
:101d08000d67000027670000a626000066e60000b1
:101d1800a1610000226200000a20000063e30000c5
:101d28005ca30000e1e10000f7e20000a060000011
:101d380080d50000a0a000002b940000e121000045
:101d48007d17000063230000d656000022a2000081
:101d5800d1110000662600007a50000027a7000075
:101d68002cd30000a5a5000087920000e424000001
:101d7800891c00006c2c0000225d00002dad0000c5
:101d880074de0000afaf0000df9f0000ee2e000001
:101d9800d8d80000aaaa000073990000eb2b000015
:101da800251a0000692900008e5b000028a80000a1
:101db80039060000783800009247000039b9000061
:101dc800c4c40000bbbb00006f850000fa3a0000e5
:101dd80068c20000bebe0000c3830000ff3f0000d1
:101de800950000007d3d00003e4100003cbc000025
:101df80030cf0000b4b400009b8e0000f535000021
:101e0800cd0d000077370000664c000036b60000a4
:101e1800610b000072320000ca4a000033b30000b0
:101e28009cc90000b1b1000037880000f030000004
:101e38005933000050100000f272000011910000a8
:101e4800a4f10000939300000fb00000d21200002c
:101e580008f7000096960000a3b60000d717000008
:101e6800f5350000551500005e740000149400005c
:101e780050fa00009c9c0000fbbb0000dd1d000028
:101e8800ad3800005f1f0000067900001e9e0000ac
:101e9800013e00005a1a0000aa7f00001b9b0000a8
:101ea800fcfc00009999000057bd0000d8180000fc
:101eb800e0e00000888800004ba10000c90900008c
:101ec8001d2200004b0b0000b66300000a8a0000c8
:101ed800b12400004e0e00001a6500000f8f0000ac
:101ee8004ce600008d8d0000e7a70000cc0c000038
:101ef800e92900004404000042680000058500004c
:101f080014eb000087870000bfaa0000c606000087
:101f1800b8ed00008282000013ac0000c30300008b
:101f2800452f000041010000ee6e00000080000017
:101f3800809fbe00821f7800e0222100011020004f
:101f4800a1028800c1b92000022020003118ba007f
:101f58000201e900fdff3a004f0178004f00be0082
:101f6800000006005400f800889fbe009c0f020085
:101f7800000000000404be002800b0000980b00082
:101f88000203be00e42221000600b00005003a006a
:101f98000700b00003003a000001eb008001eb00ed
:101fa800070037000830e10002003a000938e10074
:101fb80031003200a70288001601ba009681ba00e3
:101fc800c80ade0082c26a00c22add008502420019
:101fd800c808dd000080fd00814068000040eb007b
:101fe800350068009580680081026900c82ade0013
:101ff800c22add0085024200c808dd000080fd001d
:10200800814068000040eb0035006800958068005a
:10201800c80ade0083c26a00c22add0085024200c7
:10202800c808dd000080fd00814068000040eb002a
:10203800350068009580680081826900c82ade0042
:10204800c22add0085024200c808dd000080fd00cc
:10205800814068000040eb0035006800958068000a
:102068002600b0000780b0000830e100d1ff3a0038
:102078000938e100cfff3a004f04be005400f900d0
:10208800000006000400fa00008fbe00f03f2200a6
:10209800010020001e0178009e019000800f510071
:1020a800818f590009003600e03f2500110020000b
:1020b8001e0178009e019000800f5100818f590009
:1020c80002003e0010002000010037000000eb0075
:1020d800004078000080fa00000006000800fa00be
:1020e800008fbe0022079800330798001e00780072
:1020f8009e009000e3ff07000004e00009003200a2
:102108002e009000be00900062005000e080580051
:10211800dcff07000004e00002003200100020008d
:10212800010037000000eb00004078000080fa0052
:10213800000006002000fa00889fbe00100f9800db
:10214800210f9800320f9800430f9800540f980001
:10215800660f9800770f98006000b800008fbe00e7
:102168000000eb00200798003e089000ce08900081
:1021780000007800670060008004eb00000478002d
:102188000800be00e00f5000e08f580046003a00fb
:102198003e089000ce0890008101d1000081d30054
:1021a8001e089000ae08900002004000838048009e
:1021b8000001be001e089000ae089000c7ff07008f
:1021c8000004e000350032006e089000fe08900020
:1021d800d30207006000b800008fbe002600370059
:1021e8001e0078009e0090008101d1000081d3007c
:1021f8001e089000ae08900002004000838048004e
:102208000001be000000eb00f40007003007980052
:10221800410798001e007800de089000808040008a
:102228006a004700820020007af907007e019000ca
:102238008e0990005e009000ee0090000202be0041
:102248000001be003e009000ce009000f1020700a1
:102258000004a2000004e000030032003000200067
:10226800200798000b0037008200200003002000a0
:102278001e0f41005e9749003e089000ce0890006e
:102288001e0178009e019000800f5100818f590037
:10229800d3ff3900a70207000500370020002000ff
:1022a800200798000200370010002000200798003f
:1022b8002e0090004f04be000080fa0000000600c7
:1022c8001800fa0070079800020f9800130f980082
:1022d800240f9800350f98000000eb0020079800a5
:1022e8000e0890009e0890000000780063006000cf
:1022f8008003eb00000378000600be00e00f5000ea
:10230800e08f580038003a000e0890009e089000b0
:102318008101d1000081d3002e089000be089000f2
:1023280002004000838048000001be002e08900093
:10233800be08900069ff07000004e0002700320093
:102348006000b800008fbe001c0037001e00780037
:102358009e0090008101d1000081d3002e089000da
:10236800be08900002004000838048000001be00c3
:102378000000eb009900070030079800410798001b
:102388003e009000ce00900087020700500798009a
:10239800610798001e007800fe0090000080400051
:1023a800ea004700420020001af907004200200016
:1023b800030020001e0f41005e9749000e089000a0
:1023c8009e0890001e0178009e019000800f510029
:1023d800818f5900ddff39000500370020002000fb
:1023e80020079800020037001000200020079800fe
:1023f8002e0090000080fa00000006001800fa0085
:102408006007980071079800020f9800130f980052
:10241800240f9800350f98000000eb00000f78009b
:102428006e019000fe0190001207980023079800a3
:1024380010c0b300604798001e019000ae019000e4
:1024480000c02f00f1ff2f0002027800030178007e
:10245800800178008100780003006200810061003b
:1024680081037800000378000601be001e0090007a
:10247800ae009000800f5100818f59000200320099
:102488000040eb00604798002e089000be089000be
:1024980023020700260037001e019000ae019000bd
:1024a8000040200001002000020040008380480016
:1024b8000001be001e009000ae00900007ff07005c
:1024c8000004e000180032001e019000ae019000e8
:1024d8000000eb00410007004007980051079800f2
:1024e8004e009000de0090003c0207000080fb00d8
:1024f80000f0a7000000ea000000ea004f00de003c
:10250800604798001e019000ae0190000040200036
:102518000100200002004000838048001007980056
:1025280021079800020037000040eb006047980040
:102538006e4090000004e0000f0032000e0890008a
:102548009e0890004a09dd00c601de008301710083
:102558004a01dd006e009000fe009000020140007c
:10256800838148001e009000ae009000800f51004b
:10257800818f5900c8ff3e00ee0107006e409000b1
:102588000004a2000004e0000f003a000e089000ca
:102598009e0890004a09dd00c601de008301710033
:1025a8004a01dd006e009000fe009000020140002c
:1025b800838148001e009000ae009000800f5100fb
:1025c800818f59000200320020002000000f78009f
:1025d8001e0078000080fa00000006000a00fa00d9
:1025e800200798003207980043079800002d8400c0
:1025f800112d84003e019000ce019000001f510073
:10260800019759002e009000c200dd00005a2800f2
:102618000080400090009000100078003e014000cb
:10262800ae8148000200be000080fa0000000600eb
:102638000000fa00004020000080fa0000000600b8
:102648000600fa00889fbe00000f78001207980065
:10265800230798001e009000ae009000d9010700e3
:102668008000eb001e0178000089be001e00780083
:1026780010047800900490001e009000ae009000b6
:1026880062004000e0804800ce0107008000eb00b7
:10269800c000dd00000020000800400089804800dc
:1026a8001e0178000089be000000eb004f04be0048
:1026b8000080fa00000006000600fa00000f78000b
:1026c80012079800230798001e009000ae009000a3
:1026d800bc0107009e007800800878000000eb002d
:1026e8000080fa00000006000400fa00008fbe0017
:1026f8001e0078006100600000f0a7000000ea00fa
:102708000000ea004f00de00004078000080fa0078
:10271800000006000600fa00008fbe00220798009d
:102728002e0090001e0178009e019000c4ff070053
:1027380042002000030020003e004100ae80490016
:102748002e019000640241000001be0004007800e0
:10275800bbff070082002000030020003e0041006c
:10276800ae8049002e019000680241000001be00c1
:1027780004007800b2ff07000080fa00000006009d
:102788001200fa00889fbe00000f98000e08900003
:102798000000e000020032000040eb00a700370014
:1027a800e02c8400f12c84000001be000e0890008b
:1027b8008aff070064014700d6ff07004e0090001b
:1027c800de009000c8ff07000004e00002003200ad
:1027d8000040eb00990037006e009000fe0090006a
:1027e800c1ff07000004e000020032000040eb00d7
:1027f800920037004e019000de019000f03f220069
:1028080001002000800f5100818f590002003e0016
:102818000040eb00890037006e019000fe01900037
:10282800f03f220001002000800f5100818f5900e5
:1028380002003e000040eb00800037004e0190008f
:10284800de019000e03f250011002000800f5100bc
:10285800818f5900020036000040eb0077003700f6
:102868006e019000fe019000e03f2500110020005d
:10287800800f5100818f5900020036000040eb00a4
:102888006e0037004e019000de0190006e0090004f
:10289800fe009000800f5100818f59000200360021
:1028a8000040eb00650037004e019000de0190000b
:1028b800e02c8400f12c8400800f5100818f590096
:1028c80007003e006e019000fe019000e02c84009d
:1028d800f12c8400800f5100818f590011003100c4
:1028e8006e009000fe0090000001be000e089000ef
:1028f8003aff07000004be004e009000de00900082
:102908000001be000e08900034ff07000802be0058
:102918000001be006000b80092fd0700008fbe00f5
:102928003b0037006000b800008fbe004e019000e9
:10293800de019000e02c8400f12c8400800f51000f
:10294800818f590013003200e02c8400f12c8400a0
:1029580062005000e08058000001be000e089000a0
:102968001eff07000004be004e009000de0090002d
:102978000001be000e08900018ff07000802be0004
:102988000001be001e0078009e00900075fd070043
:10299800008fbe006022b8006011b8001e007800e9
:1029a8009e0090006ffd0700008fbe006022b800f7
:1029b8006011b8001e0078009e00900069fd0700b5
:1029c800008fbe006e009000fe0090000001be0067
:1029d8000e08900001ff07000004be00e02c8400f0
:1029e800f12c840064004000e08048000001be0033
:1029f8000e089000f9fe07000802be000001be00a4
:102a08001e0078009e00900056fd0700008fbe0053
:102a18002e009000be0090003e016800ae81680064
:102a28000200be000080700000f0a7000000ea006d
:102a38000000e9004f00de00004078004f04be00af
:102a48000080fa00000006000000fa000000eb0019
:102a58004bff07000080fa00000006000600fa009d
:102a6800000f780012079800230798001e007800ce
:102a78001e019000ae0190000fff07001e0090009d
:102a8800ae00900062004000e08048001e82e8002e
:102a98000001be0004007800e9fe07001e00900057
:102aa800ae00900066004000e08048001e017800fb
:102ab80030019800410198000080fa0000000600eb
:102ac8000400fa00008fbe001e0078009e009000ef
:102ad80000007800610060008001eb0000017800d0
:102ae8000200be000080700000f0a7000000ea00ad
:102af8000000e9004f00de00004078000080fa0086
:102b0800000006000e00fa004007980051079800e0
:102b1800620798004e009000a000900010009000fe
:102b2800000f78004e00900030019000c001900026
:102b380012079800230798001e0078008000eb0019
:102b4800dfff0700604798006e4090000004e00037
:102b5800180032006e0090009e007800808f5000b0
:102b680011003600ee019000030f78000e003700c8
:102b78001e019000ae0190005e009000cefe07009e
:102b88005e0090000080e800500798001e0090004a
:102b9800ae00900062004000e080480010079800f6
:102ba800210798001e8fe9001e0078000000e00051
:102bb800efff3a006e4090000080fa000000060027
:102bc8001c00fa00200f9800310f9800420f98005f
:102bd800530f980002412200030020002e089000a5
:102be8007efe0700008fbe000040eb0040479800c3
:102bf800680047001e0178009e01900097ff0700bb
:102c08004e0090000000e00032003a005e019000a3
:102c1800ee0190002000200001002000800f5100ec
:102c2800818f59002b003a00f200470068004700e6
:102c380022002000b3ff07000004e0002500320056
:102c480010002000300798001c0037005e0090003c
:102c5800ee0090003e014000ae8148000200be0038
:102c68006200200003002000021f40000397480074
:102c7800680047001e0178009e01900077ff07005a
:102c8800ce0090003e089000808f500005003a006a
:102c9800680047005e099000ce08900099ff070081
:102ca800404798004e4090000004e00008003a00b9
:102cb8003e0090000000e800300798001e089000d1
:102cc800be009000808f5000e0ff390001003700ff
:102cd800000000004e4090000080fa00000006004e
:102ce8000400fa00000f7800110798004200200045
:102cf8008000eb001e00900013f707001e009000f4
:102d08004300200000017800210020001e00780008
:0c2d1800abff07000080fa00000006007e
:020000040000fa
:102d24000000fe00e2622100001978000109780029
:102d3400000006000000fe000000eb008000eb0035
:102d4400f8ff07002e27ef00000006000000fe0039
:102d54000000fe00801f7800811f7800821f780029
:102d6400e162210012468000c3e8a9003100780026
:102d740070398800110078007039880029e7a800ac
:102d8400000000000000000029e7af00feff37004c
:102d940002f0a700c3e8a8004f017800cf00780034
:102da4004f007800000006000000fe00a202800030
:102db400a10288009080ba001000ba00a202880024
:102dc400000006000000fe00a2028000a1028800ac
:102dd4001000ba00a2028800000006000000fe00f5
:102de400f23f20000001610008003a003200240094
:102df400423988005039880061398800ac160200d5
:102e0400000000001000200029a7af0000002000ef
:102e1400000006000000fe0029e7af00feff3700b7
:102e24000000a700130037000010a70011003700ae
:102e34006139880050398800100024004039880026
:102e4400a0028000a10f2000a10288000100200040
:102e54008208bb008398bb008408bb008598bb0034
:102e6400ac16020000000000a00288001000200040
:102e740029a7af0000002000000006000000fe00ab
:102e840029e7af00feff37000000a7001400370059
:102e94000010a700120037006139880050398800fb
:102ea400a10280001000240040398800a00f2000f7
:102eb400a0028800000020000208bb00f20f2000de
:102ec4000298bb000308bb000298bb00ac160200ca
:102ed40000000000a10288001000200029a7af0014
:102ee40000002000000006000000fe0029e7af00fb
:102ef400feff3700f30720008081610009003a00db
:102f04005039880061398800200024004039880045
:102f140082398800ac160200000000001000200076
:102f240029a7af0000002000000006000000fe00fa
:102f340029e7af00feff3700f3072000808161001e
:102f440015003a00503988006139880010002400c7
:102f540040398800a00f2000a00288000000200053
:102f640001042000f40f20003208bb000498bb00c9
:102f74003208bb000490bb00ac1602000000000045
:102f84002aa7ec002aa7ec002100b100f6ff3a00c2
:102f94001000200029a7af00000020000000060058
:102fa400f23f2000000061000000060002c02f0074
:102fb40000006100f2ff2f008100610000000600a4
:020000040000fa
:102fc4000000fa00003a80000080fa0000000600c9
:102fd4000200fa00faff0700000f78001e007800d4
:102fe400240007000004e000020032000000280072
:102ff400710007001e0078002a0007000004e000aa
:1030040002003200000024006b0007001e0078005c
:10301400320007000004e00002003200002020001b
:10302400650007001e0078003a0007000004e00075
:1030340002003200000820005f0007001e00780034
:10304400420007000004e0000200320000042000f7
:10305400590007001e0078004a0007000004e00041
:103064000200320000012000530007000080fa0033
:10307400000006000400fa00100798000040eb006e
:10308400004f78001e0090000000e00002003d00a8
:1030940010c0b300004f78001e4078000080fa0092
:1030a400000006000400fa00100798000040eb003e
:1030b400004f78009e009000000024000080600013
:1030c4000000e0000200320010c0b300004f78009e
:1030d4001e4078000080fa00000006000400fa0098
:1030e400100798000040eb00004f78009e0090000d
:1030f40000202000008060000000e0000200320098
:1031040010c0b300004f78001e4078000080fa0021
:10311400000006000400fa00100798000040eb00cd
:10312400004f78009e00900000082000008060009e
:103134000000e0000200320010c0b300004f78002d
:103144001e4078000080fa00000006000400fa0027
:10315400100798000040eb00004f78009e0090009c
:1031640000042000008060000000e0000200320043
:1031740010c0b300004f78001e4078000080fa00b1
:10318400000006000400fa00100798000040eb005d
:10319400004f78001e009000700060000000e00006
:1031a4000200320010c0b300004f78001e407800c7
:1031b4000080fa00000006000200fa00000f780008
:1031c4009e80ea00003a800000806000003a880097
:1031d4000080fa00000006000000fa004027ef001b
:1031e4000080fa00000006000200fa00000f7800d8
:1031f400008880009e0f500002003e0020c4b300ef
:1032040003003700000021001e0040001040780039
:103214000080fa00000006000600fa00100798007b
:103224002107980030000700000f78002e0090005e
:103234009e0f500002003100ae009000010f780094
:103244001e017800010021001e00900072f50700a5
:10325400001020009e005000000021001e004000cd
:1032640001017800800078000000210071f507005a
:10327400008880001e005000008888001e0078002e
:103284000080fa00000006000400fa00000f780035
:10329400110798000a003700650007000004e000e9
:1032a400070032001e007800104078001e0fe8006e
:1032b400470007001e0090000000e9001007980076
:1032c4001e0090000000e000f3ff3a000000000040
:1032d400680007000004a2000004e000fcff3a00bc
:1032e4000080fa00000006000000fa00881f780041
:1032f40002d1bf000004a2000004e0000f0032006d
:10330400221020008000eb00000021008ff5070050
:1033140010c0b30002f1b70009003700088880002c
:103324001c0007000100210081004400804878004f
:103334000800e80000888800010037000000000051
:103344002f0007000004e000040032000188800020
:10335400f00f2000808f5000f0ff360000888000be
:103364004f0478000080fa00000006000000fa0014
:1033740080002000001188002222ef00f0022000cb
:103384004011880021e2a8002342a8000080fa002e
:10339400000006000000fa00000000001011800088
:1033a400610060000000e000fcff320010118000aa
:1033b400620060000000e000010032002222a90047
:1033c40030118000004078000080fa000000060000
:1033d4000200fa00004f7800000000001111800084
:1033e40000202000008060000000e000fbff3a00a5
:1033f4001e80fb00201188000080fa0000000600f7
:103404000000fa0010118000004078006140600064
:103414000080fb0000f0a7000000ea000000ea00c2
:103424004f00de00004078000080fa000000060033
:103434000000fa00111180000020200000806000cc
:103444000000e00007003a00111180000040200055
:10345400008060000000e000020032001000200044
:10346400010037000000eb00004078000080fa0003
:10347400000006000000fa00101180004800de0081
:10348400614060000080fb0000f0a7000000ea003b
:103494000000ea004f00de00004078000080fa00df
:1034a400000006000000fa00101180000080fa00fd
:1034b400000006000000fa0021e2a8002342a80050
:1034c4000080fa00000006000000fa0021e2a900d2
:1034d4002342a9000080fa00000006000000fa0060
:1034e4000080fa00000006000000fa0028d2bf00a5
:1034f4000004a2000004e0001700320019000700d5
:103504000004e0000300320010c0b30028f2b7004a
:10351400110037002ad2bf000004e000030032008b
:103524000000eb0097fc070029f2b70029d2bf0086
:103534000004a2000004e0000200320010c0b30046
:1035440028f2b70028d2bf000004a2000004e00063
:1035540001003200d2f507007df507000080fa0073
:10356400000006000600fa0000c429000100200043
:10357400008fbe000d003700a1ff07000004e0002b
:103584000a00320083ff070040479800ce409000b5
:1035940020c6b30080cf500002003a0010c0b30030
:1035a400100037000040eb000e0037001e009000b2
:1035b4001e00700000f0a7000000ea000000ea000e
:1035c4004f00de00004078000081eb008081eb00ba
:1035d4001e0f41005e9749000004e000e6ff3a0038
:1035e4000040eb000080fa00000006000000fa0032
:1035f400042eef00182eef000020200060718800d8
:1036040070792000007088000080eb00a0708800b2
:10361400f01f2000407188000c2eef00202eef00d8
:10362400342eef000a2eef001e2eef00322eef0094
:10363400062eef001a2eef002e2eef0070692000e8
:1036440070708800f038200010718800f00f20009e
:10365400b0718800113a8000f00b200000816000f6
:103664006004200071052000237420008049780044
:103674008149780082497800f1338000f00f2c00f2
:10368400008060000080a000f033880080c3b30095
:10369400c4e6b700103a8000000178000260a00080
:1036a4006004200071052000237420008049780004
:1036b40081497800824978000080fa000000060001
:020000040000fa
:1036c4002812000002000000800000002a120000fe
:1036d400020000008200000001000000241200002b
:1036e400040000008000000004110000000100003c
:1036f400800000002c120000020000008200000084
:10370400ffff000004120000200000008000000001
:103714000010000004010000800000002e120000d0
:1037240000040000800000002e16000004000000c9
:1037340082000000ffffff00ff0000000000000007
:020000040000fa
:103744000000fa0000102300203a88004827ef0008
:103754004e27ef0020032000303a88006027ef0056
:103764006227ef006427ef006627ef006a27ef0067
:103774006c27ef006e27ef00720020008007200006
:10378400a109200033742000804978008149780021
:10379400824978000001eb006004200071052000dc
:1037a4002374200080497800814978008249780098
:1037b4000080fa00000006000200fa00000f780002
:1037c40021028000200f2000008060001e00700095
:1037d400200288000080fa00000006000000fa00c1
:1037e400c3e8a80000000000000000000080fa0008
:1037f400000006000000fa00d2f407007bff070077
:10380400cfff070021000700d8fe0700f3ff0700e1
:1038140000022000e8ff07000080fa000000060014
:103824000200fa00000f78009e0078006191880081
:103834000000fe000080fa00000006000000fa000c
:103844004020210080077800c02121000001880069
:103854000080fa0000000600809fbe00ec80570044
:1038640031007800209188001100780026f2b7001a
:103874004f00be00000006000000fa00ddff070054
:1038840016ff070018ff0700feff37000000fa00cc
:103894000080fa0000000600080404000000000094
:020000040000fa
:020000040002f8
:04af0000ffffff0050
:020000040000fa
:020000040002f8
:04af2000ffff00002f
:020000040000fa
:020000040002f8
:04af30007fff00009f
:020000040000fa
:020000040002f8
:04af38009fff000077
:020000040000fa
:020000040002f8
:04af40009fff00006f
:020000040000fa
:020000040002f8
:04af4800ffff000007
:020000040000fa
:020000040002f8
:04af5000feff000000
:020000040000fa
:020000040002f8
:04af580000000000f5
:020000040000fa
:020000040002f8
:04af600000000000ed
:020000040000fa
:020000040002f8
:04af680000000000e5
:020000040000fa
:020000040002f8
:04af700000000000dd
:020000040000fa
:020000040002f8
:04af7800feff0000d8
:020000040000fa
:020000040002f8
:04af8000ffff0000cf
:020000040000fa
:020000040002f8
:04af8800ffff0000c7
:00000001FF
