:020000040000fa
:08000000ec22040000000000e6
:020000040000fa
:1000080004220000082200000c2200001022000038
:1000180014220000182200001c2200000022000008
:100028002022000024220000282200002c220000a8
:100038003022000034220000382200003c22000058
:100048004022000044220000482200004c22000008
:100058005022000054220000582200005c220000b8
:100068006022000064220000682200006c22000068
:100078007022000000220000002200000022000080
:1000880074220000782200007c22000080220000f8
:1000980084220000882200008c22000090220000a8
:1000a80094220000982200009c220000a022000058
:1000b800a4220000a8220000ac22000000220000b8
:1000c80000220000002200000022000000220000a0
:1000d8000022000000220000002200000022000090
:1000e8000022000000220000002200000022000080
:1000f8000022000000220000002200000022000070
:1001080000220000b02200000022000000220000af
:10011800002200000022000000220000002200004f
:1001280000220000b4220000b822000000220000d3
:100138000022000000220000bc2200000022000073
:10014800002200000022000000220000002200001f
:1001580000220000c022000000220000002200004f
:1001680000220000002200000022000000220000ff
:1001780000220000002200000022000000220000ef
:1001880000220000002200000022000000220000df
:100198000022000000220000c4220000c822000043
:1001a800cc220000002200000022000000220000f3
:1001b80000220000002200000022000000220000af
:1001c800002200000022000000220000002200009f
:1001d800002200000022000000220000002200008f
:1001e800002200000022000000220000002200007f
:1001f800002200000022000000220000002200006f
:10020800002200000022000000220000002200005e
:10021800002200000022000000220000002200004e
:10022800002200000022000000220000002200003e
:10023800002200000022000000220000002200002e
:10024800002200000022000000220000002200001e
:100258000022000000220000d0220000002200003e
:1002680000220000002200000022000000220000fe
:1002780000220000002200000022000000220000ee
:1002880000220000002200000022000000220000de
:1002980000220000002200000022000000220000ce
:1002a80000220000002200000022000000220000be
:1002b80000220000002200000022000000220000ae
:1002c800002200000022000000220000002200009e
:1002d80000220000d42200000022000000220000ba
:1002e800002200000022000000220000002200007e
:1002f8000022000000220000d8220000dc220000ba
:10030800e0220000e4220000e822000000220000b1
:10031800002200000022000000220000002200004d
:10032800002200000022000000220000002200003d
:10033800002200000022000000220000002200002d
:10034800002200000022000000220000002200001d
:10035800002200000022000000220000002200000d
:1003680000220000002200000022000000220000fd
:1003780000220000002200000022000000220000ed
:1003880000220000002200000022000000220000dd
:1003980000220000002200000022000000220000cd
:1003a80000220000002200000022000000220000bd
:1003b80000220000002200000022000000220000ad
:1003c800002200000022000000220000002200009d
:1003d800002200000022000000220000002200008d
:1003e800002200000022000000220000002200007d
:0803f8000022000000220000b9
:020000040000fa
:104000000020000000000000fe530000010000003e
:10401000ec2204000000000000000000020000008c
:104020000000000002000000020000000400000088
:0c40300000000000000000000000000084
:020000040000fa
:10403c000000fa0001eca9001160800080ff2f0045
:10404c000080600010608800308180008000eb00f0
:10405c000001be0000d022001113200062020700f4
:10406c00000078000000e9002060880020608000db
:10407c008000eb0061014000e0814800208180005d
:10408c008000eb00809ab900828bb9008602780020
:10409c00050242000010b8000102420084007800c2
:1040ac0042062000030020004f02070000007800a9
:1040bc0030618800212ca900210ca900016180002d
:1040cc00f0f32f00008060000061880023eca80052
:1040dc0023cca90011618000f03f2f00008060000c
:1040ec001061880001eca8000080fa0000000600b6
:1040fc000200fa00000f7800400620009e007800b5
:10410c00808f500020003e009e00780021818800a6
:10411c00206080008000eb0061014000e0814800dd
:10412c00208180008000eb00809ab900828bb9005e
:10413c0086027800050242000010b800010242001d
:10414c0084007800420620000300200026020700ad
:10415c000000780030618800a0c0b30005030700a0
:10416c0040c4b3000303070050c5b30001030700ac
:10417c0040c5b300ff02070090c5b300fd02070065
:10418c00a0c0b300fb0207000080fa00000006008c
:10419c000600fa0020079800ae00900030062000c0
:1041ac00808f500039003600ae00900000e22400f1
:1041bc00808f500035003e002e0090008000eb00f8
:1041cc000001be0000d022001113200006020700df
:1041dc000081eb008081eb00021f40000397480038
:1041ec00f0ff2f00010020001e0178009e019000be
:1041fc00800f5100818f590024003e0001eca90072
:10420c001e00780020608800ae0190003381880089
:10421c00206080008000eb0061014000e0814800dc
:10422c00208180008000eb00809ab900828bb9005d
:10423c0086027800050242000010b800010242001c
:10424c00840078004206200003002000e6010700ed
:10425c00000078003061880001eca800a0c0b30019
:10426c00c402070060c4b300c202070020c5b3003b
:10427c00c002070050c4b300be02070010c5b30053
:10428c00bc020700a0c0b300ba0207000080fa000d
:10429c00000006001e00fa00ea00470003000900b7
:1042ac008018eb008058eb000000eb00000f78004a
:1042bc000c003700bb0207000004e00009003200cc
:1042cc009d020700404798004e409000a90207004d
:1042dc009e0078006a804000ce4090000177780004
:1042ec001e0fe8001e007800e70f5000f1ff3400ad
:1042fc00f3004700040009008058eb00f800470069
:10430c00010009008018eb008058eb000000eb0066
:10431c0010079800100037001e0090006a00400043
:10432c00ee4078001e00900073004000017778008a
:10433c001e009000640040006a004000ee407800cf
:10434c001e00900078004000017778001e0090005d
:10435c000000e800100798001e009000e30f5000ca
:10436c00edff340073004700b901070030079800d7
:10437c0078004700b6010700400798003e00900007
:10438c005bff07004e00900081ff07000080fa00e1
:10439c00000006000000fa001b03070024ff0700c2
:1043ac00a0c0b3007302070020c5b3007102070060
:1043bc0050c4b3006f02070010c4b3006d020700b5
:1043cc0040c4b3006b02070090c5b300690207003c
:1043dc00a0c0b30067020700aeff0700feff370066
:020000040000fa
:1043ec000000fa000080fa0000000600ffff370012
:020000040000fa
:08440000f42404000000000098
:020000040000fa
:08440800e6230400000000009f
:020000040000fa
:08441000282404000000000054
:020000040000fa
:084418008824040000000000ec
:020000040000fa
:08442000062404000000000066
:020000040000fa
:0844280048240400000000001c
:020000040000fa
:084430006824040000000000f4
:020000040000fa
:08443800a824040000000000ac
:020000040000fa
:0844400000220400000000004e
:020000040000fa
:08444800002204000000000046
:020000040000fa
:0844500000220400000000003e
:020000040000fa
:08445800002204000000000036
:020000040000fa
:0844600000220400000000002e
:020000040000fa
:08446800002204000000000026
:020000040000fa
:0844700000220400000000001e
:020000040000fa
:08447800002204000000000016
:020000040000fa
:0844800000220400000000000e
:020000040000fa
:08448800002204000000000006
:020000040000fa
:084490000022040000000000fe
:020000040000fa
:084498000022040000000000f6
:020000040000fa
:0844a0000022040000000000ee
:020000040000fa
:0844a8000022040000000000e6
:020000040000fa
:0844b0000022040000000000de
:020000040000fa
:0844b8000022040000000000d6
:020000040000fa
:0844c0000022040000000000ce
:020000040000fa
:0844c8000022040000000000c6
:020000040000fa
:0844d0000022040000000000be
:020000040000fa
:0844d8000022040000000000b6
:020000040000fa
:0844e0000022040000000000ae
:020000040000fa
:0844e8000022040000000000a6
:020000040000fa
:0844f00000220400000000009e
:020000040000fa
:0844f800002204000000000096
:020000040000fa
:0845000000220400000000008d
:020000040000fa
:08450800002204000000000085
:020000040000fa
:0845100000220400000000007d
:020000040000fa
:08451800002204000000000075
:020000040000fa
:0845200000220400000000006d
:020000040000fa
:08452800002204000000000065
:020000040000fa
:0845300000220400000000005d
:020000040000fa
:08453800002204000000000055
:020000040000fa
:0845400000220400000000004d
:020000040000fa
:08454800002204000000000045
:020000040000fa
:0845500000220400000000003d
:020000040000fa
:08455800002204000000000035
:020000040000fa
:0845600000220400000000002d
:020000040000fa
:08456800002204000000000025
:020000040000fa
:0845700000220400000000001d
:020000040000fa
:08457800002204000000000015
:020000040000fa
:0845800000220400000000000d
:020000040000fa
:08458800002204000000000005
:020000040000fa
:084590000022040000000000fd
:020000040000fa
:084598000022040000000000f5
:020000040000fa
:0845a0000022040000000000ed
:020000040000fa
:0845a8000022040000000000e5
:020000040000fa
:0845b0000022040000000000dd
:020000040000fa
:0845b8000022040000000000d5
:020000040000fa
:0845c0000022040000000000cd
:020000040000fa
:0845c8000022040000000000c5
:020000040000fa
:0845d0000022040000000000bd
:020000040000fa
:1045d800af0221000eff22000e018800000000003b
:1045e800000020000000e00002003200000120006e
:1045f8002002880014000700fb0007000000e0000c
:1046080003003a00e0812200010020000200370088
:104618000000200001002000810f7000010032001e
:104628000f000700000020000000e0000200320038
:104638000000020000000000d0210200000000007d
:104648000040da000000fe00200020000000e0002a
:1046580002003200100020009001880000000600cf
:10466800a1028800800478000000eb001f003700da
:10467800e284440054a0b4009905ba00e2844400de
:1046880054a0b4009906ba00e284440054a0b400cf
:104698000006eb00476fde00fd07b200ae018800a0
:1046a800636ce10003003a000ad801000000eb0047
:1046b8000e003700606ce10008003a00004deb0086
:1046c8000a05e800020039003420ec000af0a000d6
:1046d8008b05e900f9ff3e00040037006168e1003e
:1046e800010032000086eb000b00070019c7ba0072
:1046f8000e04e0001905ba0003003a000a00e000c1
:10470800dbff3a0000000600fe07b200ae02880098
:104718008a047800f5ff37000cd0a300e20f4d00a3
:104728001c003b0089027800354dba000a05e800f4
:10473800020039003420ec000af0a0008b05e900e3
:104748000f003200254dba000a05e80002003900c2
:104758003420ec000af0a0008b05e90008003200c4
:104768000c00e0000600320015cdba000a05e8008a
:10477800020039003420ec000af0a0008b05e900a3
:104788008984e80054a0b4000b00e000e2ff3a007e
:10479800000006009902ba00055d78008b05e90063
:1047a800f7ff3200c82ade00055d78008b05e900b6
:1047b800f3ff32000c00e000f1ff320019ddba000f
:1047c800eeff37003600f800809fbe00829fbe00d3
:1047d800849fbe00869fbe000000fa00c028a90082
:1047e8000000eb00230207000080fa004f03be0020
:1047f8004f02be004f01be004f00be003600f90058
:10480800004006003600f800809fbe00829fbe0070
:10481800849fbe00869fbe000000fa001c020700ad
:10482800c048a90010002000120207000080fa000a
:104838004f03be004f02be004f01be004f00be0036
:104848003600f900004006003600f800809fbe00e0
:10485800829fbe00849fbe00869fbe000000fa00b3
:10486800c068a90020002000020207000080fa00aa
:104878004f03be004f02be004f01be004f00be00f6
:104888003600f900004006003600f800809fbe00a0
:10489800829fbe00849fbe00869fbe000000fa0073
:1048a800c088a90030002000f20107000080fa004b
:1048b8004f03be004f02be004f01be004f00be00b6
:1048c8003600f900004006003600f800809fbe0060
:1048d800829fbe00849fbe00869fbe000000fa0033
:1048e800c0a8a90040002000e20107000080fa00eb
:1048f8004f03be004f02be004f01be004f00be0076
:104908003600f900004006003600f800809fbe001f
:10491800829fbe00849fbe00869fbe000000fa00f2
:10492800c608a90070002000d20107000080fa0024
:104938004f03be004f02be004f01be004f00be0035
:104948003600f900004006003600f800809fbe00df
:10495800829fbe00849fbe00869fbe000000fa00b2
:104968002146800000102000008060000000e00068
:1049780003003200c508a900c0002000bd010700df
:104988002146800000002800008060000000e00050
:1049980003003200c5e8a90080002000b501070027
:1049a8002146800000022000008060000000e00036
:1049b80003003200c4a8a90090002000ad01070040
:1049c80020468000700060000000e0000300320014
:1049d800c488a900a0002000a6010700ffff370037
:1049e8000040da000000fe00000005006022b80068
:1049f800060220000000d0008180d2000482d2008c
:104a08008582d2000000a0000202520083825a0070
:104a1800030031000202420083824a000000a10024
:104a28000603e900f3ff3a00000006008000780062
:104a38001000200002022000828f50000400320083
:104a4800e9805000e48f5000010036000000eb00c0
:104a580000000600889fbe008a1f780000057800c5
:104a68000a047800984478000805e8000900fb006b
:104a7800eeff07000000e000f9ff3a00b0c2b30003
:104a880080cf540005003200d0c2b3008000eb0094
:104a980080cf540005003a00020037008000eb0088
:104aa80001003700110020000804e8000000eb00b6
:104ab80003003700ea00b900020050000003b0000c
:104ac8003801fb0003fd2f0082814100e98f51006e
:104ad800f8ff36000100e00001003a000000ea009b
:0c4ae8004f0578004f04be0000000600df
:020000040000fa
:104af4000000fa00003a80000080fa00000006007e
:104b04000200fa00faff0700000f78001e00780088
:104b1400240007000004e000020032000000280026
:104b2400710007001e0078002a0007000004e0005e
:104b340002003200000024006b0007001e00780011
:104b4400320007000004e0000200320000202000d0
:104b5400650007001e0078003a0007000004e0002a
:104b640002003200000820005f0007001e007800e9
:104b7400420007000004e0000200320000042000ac
:104b8400590007001e0078004a0007000004e000f6
:104b94000200320000012000530007000080fa00e8
:104ba400000006000400fa00100798000040eb0023
:104bb400004f78001e0090000000e00002003d005d
:104bc40010c0b300004f78001e4078000080fa0047
:104bd400000006000400fa00100798000040eb00f3
:104be400004f78009e0090000000240000806000c8
:104bf4000000e0000200320010c0b300004f780053
:104c04001e4078000080fa00000006000400fa004c
:104c1400100798000040eb00004f78009e009000c1
:104c240000202000008060000000e000020032004c
:104c340010c0b300004f78001e4078000080fa00d6
:104c4400000006000400fa00100798000040eb0082
:104c5400004f78009e009000000820000080600053
:104c64000000e0000200320010c0b300004f7800e2
:104c74001e4078000080fa00000006000400fa00dc
:104c8400100798000040eb00004f78009e00900051
:104c940000042000008060000000e00002003200f8
:104ca40010c0b300004f78001e4078000080fa0066
:104cb400000006000400fa00100798000040eb0012
:104cc400004f78001e009000700060000000e000bb
:104cd4000200320010c0b300004f78001e4078007c
:104ce4000080fa00000006000200fa00000f7800bd
:104cf4009e80ea00003a800000806000003a88004c
:104d04000080fa00000006000000fa004027ef00cf
:104d14000080fa00000006000000fa008000200075
:104d2400001188002222ef00f002200040118800c8
:104d340021e2a8002342a8000080fa000000060037
:104d44000000fa0000000000101180006100600003
:104d54000000e000fcff32001011800062006000df
:104d64000000e000010032002222a900301180007e
:104d7400004078000080fa00000006000200fa00fb
:104d8400004f780000000000111180000020200076
:104d9400008060000000e000fbff3a001e80fb0082
:104da400201188000080fa00000006000000fa00cc
:104db4001011800000407800614060000080fb001a
:104dc40000f0a7000000ea000000ea004f00de0047
:104dd400004078000080fa00000006000000fa009d
:104de4001111800000202000008060000000e0001d
:104df40007003a001111800000402000008060008c
:104e04000000e00002003200100020000100370022
:104e14000000eb00004078000080fa00000006006b
:104e24000000fa00101180004800de0061406000bc
:104e34000080fb0000f0a7000000ea000000ea0088
:104e44004f00de00004078000080fa0000000600f9
:104e54000000fa00101180000080fa000000060033
:104e64000000fa0021e2a8002342a8000080fa0012
:104e7400000006000000fa0021e2a9002342a90074
:104e84000080fa00000006000000fa00042eef0083
:104e9400182eef0000302000607188007079200027
:104ea40000708800f0fe2f00a0708800f01f200022
:104eb400407188000c2eef00202eef00342eef00fe
:104ec4000a2eef001e2eef00322eef00062eef000a
:104ed4001a2eef002e2eef007069200070708800eb
:104ee400f038200010718800f00f2000b0718800a5
:104ef400113a8000f00b2000008160006004200063
:104f040071052000237420008049780081497800cd
:104f14008249780080c3b300c4e6b700f13380004f
:104f2400f00f2c00008060000080a000f0338800a7
:104f3400103a8000000178000260a00060042000a4
:104f4400710520002374200080497800814978008d
:104f5400824978000080fa00000006000000fa0090
:104f640000102300203a88004827ef004e27ef0066
:104f740020032000303a88006027ef006227ef000a
:104f84006427ef006627ef006a27ef006c27ef0025
:104f94006e27ef007200200080072000a109200086
:104fa4003374200080497800814978008249780070
:104fb4000001eb0060042000710520002374200030
:104fc4008049780081497800824978000080fa009d
:104fd400000006000200fa00000f780021028000a1
:104fe400200f2000008060001e0070002002880056
:104ff4000080fa00000006000000fa00c3e8a800e0
:1050040000000000000000000080fa00000006001c
:105014000000fa009cff0700d0ff0700f2fc070025
:105024003dff0700f4ff070000022000e9ff07002e
:085034000080fa0000000600f4
:020000040000fa
:10503c002010000004000000800000002810000078
:10504c000200000082000000ffff000000100000c2
:10505c00200000008000000024100000040000006c
:10506c00820000003200640000000000000000001c
:020000040000fa
:10507c000200fa00000f78009e0078004181880041
:10508c000000fe000080fa00000006000000fa009c
:10509c0000002100800778008001210000018800b9
:1050ac000080fa0000000600809fbe00ec805700d4
:1050bc0031007800008188001100780022f0b700e0
:0850cc004f00be0000000600c9
:020000040000fa
:020000040002f8
:04af0000ffffff0050
:020000040000fa
:020000040002f8
:04af2000ffff00002f
:020000040000fa
:020000040002f8
:04af30007fff00009f
:020000040000fa
:020000040002f8
:04af38009fff000077
:020000040000fa
:020000040002f8
:04af40009fff00006f
:020000040000fa
:020000040002f8
:04af4800ffff000007
:020000040000fa
:020000040002f8
:04af5000feff000000
:020000040000fa
:020000040002f8
:04af580000000000f5
:020000040000fa
:020000040002f8
:04af600000000000ed
:020000040000fa
:020000040002f8
:04af680000000000e5
:020000040000fa
:020000040002f8
:04af700000000000dd
:020000040000fa
:020000040002f8
:04af7800feff0000d8
:020000040000fa
:020000040002f8
:04af8000ffff0000cf
:020000040000fa
:020000040002f8
:04af8800ffff0000c7
:00000001FF
